{"abi":[{"type":"function","name":"getter","inputs":[],"outputs":[{"name":"","type":"uint256[5]","internalType":"uint256[5]"}],"stateMutability":"view"},{"type":"function","name":"main","inputs":[{"name":"x","type":"uint256[5]","internalType":"uint256[5]"}],"outputs":[],"stateMutability":"nonpayable"}],"bytecode":{"object":"0x6080604052348015600e575f5ffd5b506103b18061001c5f395ff3fe608060405234801561000f575f5ffd5b5060043610610034575f3560e01c8063993a04b714610038578063cbd3940d14610056575b5f5ffd5b610040610072565b60405161004d91906101c2565b60405180910390f35b610070600480360381019061006b9190610350565b6100bc565b005b61007a6100f2565b5f6005806020026040519081016040528092919082600580156100b2576020028201915b81548152602001906001019080831161009e575b5050505050905090565b600435602060040135604060040135606060040135608060040135845f5583600155826002558160035580600455505050505050565b6040518060a00160405280600590602082028036833780820191505090505090565b5f60059050919050565b5f81905092915050565b5f819050919050565b5f819050919050565b61014381610131565b82525050565b5f610154838361013a565b60208301905092915050565b5f602082019050919050565b61017581610114565b61017f818461011e565b925061018a82610128565b805f5b838110156101ba5781516101a18782610149565b96506101ac83610160565b92505060018101905061018d565b505050505050565b5f60a0820190506101d55f83018461016c565b92915050565b5f604051905090565b5f5ffd5b5f5ffd5b5f601f19601f8301169050919050565b7f4e487b71000000000000000000000000000000000000000000000000000000005f52604160045260245ffd5b610232826101ec565b810181811067ffffffffffffffff82111715610251576102506101fc565b5b80604052505050565b5f6102636101db565b905061026f8282610229565b919050565b5f67ffffffffffffffff82111561028e5761028d6101fc565b5b602082029050919050565b5f5ffd5b6102a681610131565b81146102b0575f5ffd5b50565b5f813590506102c18161029d565b92915050565b5f6102d96102d484610274565b61025a565b905080602084028301858111156102f3576102f2610299565b5b835b8181101561031c578061030888826102b3565b8452602084019350506020810190506102f5565b5050509392505050565b5f82601f83011261033a576103396101e8565b5b60056103478482856102c7565b91505092915050565b5f60a08284031215610365576103646101e4565b5b5f61037284828501610326565b9150509291505056fea2646970667358221220fdd326e138abf0dfbc5827466b756a788c33d468fb80bdae47707c2123538ed764736f6c634300081e0033","linkReferences":{}},"methodIdentifiers":{"getter()":"993a04b7","main(uint256[5])":"cbd3940d"},"id":96}