{"abi":[{"type":"function","name":"main","inputs":[{"name":"x","type":"uint256","internalType":"uint256"},{"name":"y","type":"uint256","internalType":"uint256"}],"outputs":[{"name":"","type":"tuple","internalType":"struct ReturnSimpleStruct.Point","components":[{"name":"x","type":"uint256","internalType":"uint256"},{"name":"y","type":"uint256","internalType":"uint256"}]}],"stateMutability":"pure"}],"bytecode":{"object":"0x6080604052348015600e575f5ffd5b506101898061001c5f395ff3fe608060405234801561000f575f5ffd5b5060043610610029575f3560e01c8063cc572cf91461002d575b5f5ffd5b610047600480360381019061004291906100c0565b61005d565b604051610054919061013a565b60405180910390f35b610065610071565b825f528160205260405ff35b60405180604001604052805f81526020015f81525090565b5f5ffd5b5f819050919050565b61009f8161008d565b81146100a9575f5ffd5b50565b5f813590506100ba81610096565b92915050565b5f5f604083850312156100d6576100d5610089565b5b5f6100e3858286016100ac565b92505060206100f4858286016100ac565b9150509250929050565b6101078161008d565b82525050565b604082015f8201516101215f8501826100fe565b50602082015161013460208501826100fe565b50505050565b5f60408201905061014d5f83018461010d565b9291505056fea264697066735822122041c1e5e479356cabea3da6f9c21fb3be4b364d4e250dc0102c78d177b8d9347b64736f6c634300081e0033","linkReferences":{}},"methodIdentifiers":{"main(uint256,uint256)":"cc572cf9"},"id":73}