{"abi":[{"type":"function","name":"getter","inputs":[],"outputs":[{"name":"","type":"uint256[]","internalType":"uint256[]"}],"stateMutability":"view"},{"type":"function","name":"main","inputs":[{"name":"x","type":"uint256[]","internalType":"uint256[]"}],"outputs":[],"stateMutability":"nonpayable"}],"bytecode":{"object":"0x6080604052348015600e575f5ffd5b506103e88061001c5f395ff3fe608060405234801561000f575f5ffd5b5060043610610034575f3560e01c80632964e61d14610038578063993a04b714610054575b5f5ffd5b610052600480360381019061004d9190610294565b610072565b005b61005c6100ab565b6040516100699190610392565b60405180910390f35b8051805f555f5f5260205f20602083015f5b838110156100a45760208102820151808285015550600181019050610084565b5050505050565b60605f8054806020026020016040519081016040528092919081815260200182805480156100f657602002820191905f5260205f20905b8154815260200190600101908083116100e2575b5050505050905090565b5f604051905090565b5f5ffd5b5f5ffd5b5f5ffd5b5f601f19601f8301169050919050565b7f4e487b71000000000000000000000000000000000000000000000000000000005f52604160045260245ffd5b61015b82610115565b810181811067ffffffffffffffff8211171561017a57610179610125565b5b80604052505050565b5f61018c610100565b90506101988282610152565b919050565b5f67ffffffffffffffff8211156101b7576101b6610125565b5b602082029050602081019050919050565b5f5ffd5b5f819050919050565b6101de816101cc565b81146101e8575f5ffd5b50565b5f813590506101f9816101d5565b92915050565b5f61021161020c8461019d565b610183565b90508083825260208201905060208402830185811115610234576102336101c8565b5b835b8181101561025d578061024988826101eb565b845260208401935050602081019050610236565b5050509392505050565b5f82601f83011261027b5761027a610111565b5b813561028b8482602086016101ff565b91505092915050565b5f602082840312156102a9576102a8610109565b5b5f82013567ffffffffffffffff8111156102c6576102c561010d565b5b6102d284828501610267565b91505092915050565b5f81519050919050565b5f82825260208201905092915050565b5f819050602082019050919050565b61030d816101cc565b82525050565b5f61031e8383610304565b60208301905092915050565b5f602082019050919050565b5f610340826102db565b61034a81856102e5565b9350610355836102f5565b805f5b8381101561038557815161036c8882610313565b97506103778361032a565b925050600181019050610358565b5085935050505092915050565b5f6020820190508181035f8301526103aa8184610336565b90509291505056fea2646970667358221220036b63f9f0a89eedf137fb387f96f36a3520d70b47b7a644227b0d3670cbe19464736f6c634300081e0033","linkReferences":{}},"methodIdentifiers":{"getter()":"993a04b7","main(uint256[])":"2964e61d"},"id":25}