{"abi":[{"type":"function","name":"main","inputs":[],"outputs":[{"name":"","type":"uint256","internalType":"uint256"}],"stateMutability":"view"},{"type":"function","name":"setValue","inputs":[{"name":"x","type":"uint256","internalType":"uint256"}],"outputs":[],"stateMutability":"nonpayable"}],"bytecode":{"object":"0x6080604052348015600e575f5ffd5b5061012c8061001c5f395ff3fe6080604052348015600e575f5ffd5b50600436106030575f3560e01c806355241077146034578063dffeadd014604c575b5f5ffd5b604a60048036038101906046919060ac565b6066565b005b6052606f565b604051605d919060df565b60405180910390f35b805f8190555050565b5f5f54805f5260205ff35b5f5ffd5b5f819050919050565b608e81607e565b81146097575f5ffd5b50565b5f8135905060a6816087565b92915050565b5f6020828403121560be5760bd607a565b5b5f60c984828501609a565b91505092915050565b60d981607e565b82525050565b5f60208201905060f05f83018460d2565b9291505056fea26469706673582212208c15c97c5bf832dcf7b419185d88b54f02ee446f8f906317ac77392914344dfa64736f6c634300081e0033","linkReferences":{}},"methodIdentifiers":{"main()":"dffeadd0","setValue(uint256)":"55241077"},"id":53}