{"abi":[{"type":"function","name":"main","inputs":[{"name":"index","type":"uint256","internalType":"uint256"}],"outputs":[{"name":"","type":"uint256","internalType":"uint256"}],"stateMutability":"view"},{"type":"function","name":"setValue","inputs":[{"name":"x","type":"uint256[5]","internalType":"uint256[5]"}],"outputs":[],"stateMutability":"nonpayable"}],"bytecode":{"object":"0x6080604052348015600e575f5ffd5b5061020e8061001c5f395ff3fe608060405234801561000f575f5ffd5b5060043610610034575f3560e01c806353bdb0e314610038578063ab3ae25514610054575b5f5ffd5b610052600480360381019061004d9190610127565b610084565b005b61006e60048036038101906100699190610185565b610098565b60405161007b91906101bf565b60405180910390f35b805f9060056100949291906100a3565b5050565b5f8154805f5260205ff35b82600581019282156100d2579160200282015b828111156100d15782358255916020019190600101906100b6565b5b5090506100df91906100e3565b5090565b5b808211156100fa575f815f9055506001016100e4565b5090565b5f5ffd5b5f5ffd5b5f8190508260206005028201111561012157610120610102565b5b92915050565b5f60a0828403121561013c5761013b6100fe565b5b5f61014984828501610106565b91505092915050565b5f819050919050565b61016481610152565b811461016e575f5ffd5b50565b5f8135905061017f8161015b565b92915050565b5f6020828403121561019a576101996100fe565b5b5f6101a784828501610171565b91505092915050565b6101b981610152565b82525050565b5f6020820190506101d25f8301846101b0565b9291505056fea2646970667358221220bfe6824fb4c201105dabdee9f74adfe8b1649de03876183feba5e67333ef2c7664736f6c634300081e0033","linkReferences":{}},"methodIdentifiers":{"main(uint256)":"ab3ae255","setValue(uint256[5])":"53bdb0e3"},"id":63}