{"abi":[{"type":"function","name":"main","inputs":[{"name":"t","type":"address","internalType":"address"}],"outputs":[],"stateMutability":"payable"}],"bytecode":{"object":"0x6080604052348015600e575f5ffd5b5061010d8061001c5f395ff3fe608060405260043610601b575f3560e01c8063ecbb72c214601f575b5f5ffd5b603560048036038101906031919060b1565b6037565b005b60405163c298557860e01b81525f8160048334865af1806055575f5ffd5b505050565b5f5ffd5b5f73ffffffffffffffffffffffffffffffffffffffff82169050919050565b5f608582605e565b9050919050565b609381607d565b8114609c575f5ffd5b50565b5f8135905060ab81608c565b92915050565b5f6020828403121560c35760c2605a565b5b5f60ce84828501609f565b9150509291505056fea26469706673582212202c386eb9b119b41ec1d3708b55bed33d724b592d8770409ae5f787b7e237ef1c64736f6c634300081e0033","linkReferences":{}},"methodIdentifiers":{"main(address)":"ecbb72c2"},"id":73}