{"abi":[{"type":"function","name":"main","inputs":[{"name":"emitter","type":"address","internalType":"address"},{"name":"num","type":"uint256","internalType":"uint256"},{"name":"isActive","type":"bool","internalType":"bool"}],"outputs":[],"stateMutability":"nonpayable"},{"type":"event","name":"MyEvent","inputs":[{"name":"emitter","type":"address","indexed":false,"internalType":"address"},{"name":"num","type":"uint256","indexed":false,"internalType":"uint256"},{"name":"isActive","type":"bool","indexed":false,"internalType":"bool"}],"anonymous":false}],"bytecode":{"object":"0x6080604052348015600e575f5ffd5b506101d68061001c5f395ff3fe608060405234801561000f575f5ffd5b5060043610610029575f3560e01c80639190dc791461002d575b5f5ffd5b61004760048036038101906100429190610150565b610049565b005b7f4d794576656e7428616464726573732c75696e743235362c626f6f6c29000000805f52836080528260a0528160c052601d5f208060606080a15050505050565b5f5ffd5b5f73ffffffffffffffffffffffffffffffffffffffff82169050919050565b5f6100b78261008e565b9050919050565b6100c7816100ad565b81146100d1575f5ffd5b50565b5f813590506100e2816100be565b92915050565b5f819050919050565b6100fa816100e8565b8114610104575f5ffd5b50565b5f81359050610115816100f1565b92915050565b5f8115159050919050565b61012f8161011b565b8114610139575f5ffd5b50565b5f8135905061014a81610126565b92915050565b5f5f5f606084860312156101675761016661008a565b5b5f610174868287016100d4565b935050602061018586828701610107565b92505060406101968682870161013c565b915050925092509256fea26469706673582212201bf9244d067c98ad7a35bf66107c5ca67740aadd94e8d7abd0f2625dc9ca4e7164736f6c634300081e0033","linkReferences":{}},"methodIdentifiers":{"main(address,uint256,bool)":"9190dc79"},"id":32}