{"abi":[{"type":"function","name":"main","inputs":[{"name":"v1","type":"uint64","internalType":"uint64"},{"name":"v2","type":"uint64","internalType":"uint64"},{"name":"v3","type":"uint64","internalType":"uint64"},{"name":"v4","type":"uint64","internalType":"uint64"},{"name":"v5","type":"uint64","internalType":"uint64"}],"outputs":[],"stateMutability":"nonpayable"},{"type":"function","name":"writeHere","inputs":[{"name":"","type":"uint256","internalType":"uint256"}],"outputs":[{"name":"","type":"uint64","internalType":"uint64"}],"stateMutability":"view"}],"bytecode":{"object":"0x6080604052348015600e575f5ffd5b506102678061001c5f395ff3fe608060405234801561000f575f5ffd5b5060043610610034575f3560e01c806316a58ab214610038578063b170f3bd14610068575b5f5ffd5b610052600480360381019061004d919061012a565b610084565b60405161005f9190610177565b60405180910390f35b610082600480360381019061007d91906101ba565b6100be565b005b5f8181548110610092575f80fd5b905f5260205f209060049182820401919006600802915054906101000a900467ffffffffffffffff1681565b60045f555f5f5260205f205f86811790508560401b811790508460801b811790508360c01b8117905080825550505050505050565b5f5ffd5b5f819050919050565b610109816100f7565b8114610113575f5ffd5b50565b5f8135905061012481610100565b92915050565b5f6020828403121561013f5761013e6100f3565b5b5f61014c84828501610116565b91505092915050565b5f67ffffffffffffffff82169050919050565b61017181610155565b82525050565b5f60208201905061018a5f830184610168565b92915050565b61019981610155565b81146101a3575f5ffd5b50565b5f813590506101b481610190565b92915050565b5f5f5f5f5f60a086880312156101d3576101d26100f3565b5b5f6101e0888289016101a6565b95505060206101f1888289016101a6565b9450506040610202888289016101a6565b9350506060610213888289016101a6565b9250506080610224888289016101a6565b915050929550929590935056fea26469706673582212201395670cb5e05fdba2f6990f102247287ac2161ace49f68c2cb02721dc71b9dd64736f6c634300081e0033","linkReferences":{}},"methodIdentifiers":{"main(uint64,uint64,uint64,uint64,uint64)":"b170f3bd","writeHere(uint256)":"16a58ab2"},"id":83}