{"abi":[{"type":"function","name":"main","inputs":[{"name":"emitter","type":"address","internalType":"address"},{"name":"id","type":"bytes32","internalType":"bytes32"},{"name":"num","type":"uint256","internalType":"uint256"}],"outputs":[],"stateMutability":"nonpayable"},{"type":"event","name":"MyEvent","inputs":[{"name":"emitter","type":"address","indexed":true,"internalType":"address"},{"name":"id","type":"bytes32","indexed":true,"internalType":"bytes32"},{"name":"num","type":"uint256","indexed":false,"internalType":"uint256"}],"anonymous":false}],"bytecode":{"object":"0x6080604052348015600e575f5ffd5b506101c48061001c5f395ff3fe608060405234801561000f575f5ffd5b5060043610610029575f3560e01c8063c113c1db1461002d575b5f5ffd5b6100476004803603810190610042919061013e565b610049565b005b8060805281837f044d482819499c9d5fde1245ce63873b1259fc52fc78651ccdcdf7392637d37460206080a3505050565b5f5ffd5b5f73ffffffffffffffffffffffffffffffffffffffff82169050919050565b5f6100a78261007e565b9050919050565b6100b78161009d565b81146100c1575f5ffd5b50565b5f813590506100d2816100ae565b92915050565b5f819050919050565b6100ea816100d8565b81146100f4575f5ffd5b50565b5f81359050610105816100e1565b92915050565b5f819050919050565b61011d8161010b565b8114610127575f5ffd5b50565b5f8135905061013881610114565b92915050565b5f5f5f606084860312156101555761015461007a565b5b5f610162868287016100c4565b9350506020610173868287016100f7565b92505060406101848682870161012a565b915050925092509256fea2646970667358221220bf891fc8071d579d0cacdc78532c0ac1f931377d0fb7a3c13becf96d2a8a7ab064736f6c634300081e0033","linkReferences":{}},"methodIdentifiers":{"main(address,bytes32,uint256)":"c113c1db"},"id":45}