{"abi":[{"type":"function","name":"main","inputs":[{"name":"recipients","type":"address[]","internalType":"address[]"}],"outputs":[],"stateMutability":"payable"}],"bytecode":{"object":"0x6080604052348015600e575f5ffd5b506101608061001c5f395ff3fe60806040526004361061001d575f3560e01c8063ab9a28a914610021575b5f5ffd5b61003b600480360381019061003691906100df565b61003d565b005b6024358047045a5f5f5b8481101561006d5780602002604401355f865f88888589f1925050600181019050610047565b50505050505050565b5f5ffd5b5f5ffd5b5f5ffd5b5f5ffd5b5f5ffd5b5f5f83601f84011261009f5761009e61007e565b5b8235905067ffffffffffffffff8111156100bc576100bb610082565b5b6020830191508360208202830111156100d8576100d7610086565b5b9250929050565b5f5f602083850312156100f5576100f4610076565b5b5f83013567ffffffffffffffff8111156101125761011161007a565b5b61011e8582860161008a565b9250925050925092905056fea2646970667358221220e9985731b63122a1e8a55ac1c57f1fda9d26ff1fff7374bf1c1986029593cda464736f6c634300081e0033","linkReferences":{}},"methodIdentifiers":{"main(address[])":"ab9a28a9"},"id":57}