{"abi":[{"type":"function","name":"main","inputs":[{"name":"","type":"bytes","internalType":"bytes"}],"outputs":[{"name":"","type":"uint256","internalType":"uint256"}],"stateMutability":"pure"}],"bytecode":{"object":"0x6080604052348015600e575f5ffd5b506101828061001c5f395ff3fe608060405234801561000f575f5ffd5b5060043610610029575f3560e01c8063b504e6b11461002d575b5f5ffd5b610047600480360381019061004291906100d0565b61005d565b6040516100549190610133565b60405180910390f35b5f36805f5260205ff35b5f5ffd5b5f5ffd5b5f5ffd5b5f5ffd5b5f5ffd5b5f5f83601f8401126100905761008f61006f565b5b8235905067ffffffffffffffff8111156100ad576100ac610073565b5b6020830191508360018202830111156100c9576100c8610077565b5b9250929050565b5f5f602083850312156100e6576100e5610067565b5b5f83013567ffffffffffffffff8111156101035761010261006b565b5b61010f8582860161007b565b92509250509250929050565b5f819050919050565b61012d8161011b565b82525050565b5f6020820190506101465f830184610124565b9291505056fea2646970667358221220e094966f7a751d6e1b314163e5899e8f5d481d659dc8d8e47e4653ab0706ba1564736f6c634300081e0033","linkReferences":{}},"methodIdentifiers":{"main(bytes)":"b504e6b1"},"id":26}