{"abi":[{"type":"function","name":"main","inputs":[],"outputs":[{"name":"","type":"uint256","internalType":"uint256"}],"stateMutability":"pure"}],"bytecode":{"object":"0x6080604052348015600e575f5ffd5b5060b180601a5f395ff3fe6080604052348015600e575f5ffd5b50600436106026575f3560e01c8063dffeadd014602a575b5f5ffd5b60306044565b604051603b91906064565b60405180910390f35b5f602a5f5260205ff35b5f819050919050565b605e81604e565b82525050565b5f60208201905060755f8301846057565b9291505056fea2646970667358221220316a2e00e63a04f31371f1b46305755fe013a47aa9b0daf7ada6635e8e45d2b864736f6c634300081e0033","linkReferences":{}},"methodIdentifiers":{"main()":"dffeadd0"},"id":54}