{"abi":[{"type":"function","name":"main","inputs":[{"name":"index","type":"uint256","internalType":"uint256"}],"outputs":[{"name":"","type":"uint256","internalType":"uint256"}],"stateMutability":"view"},{"type":"function","name":"setValue","inputs":[{"name":"index","type":"uint256","internalType":"uint256"},{"name":"value","type":"uint256","internalType":"uint256"}],"outputs":[],"stateMutability":"nonpayable"}],"bytecode":{"object":"0x6080604052348015600e575f5ffd5b506101b78061001c5f395ff3fe608060405234801561000f575f5ffd5b5060043610610034575f3560e01c80637b8d56e314610038578063ab3ae25514610054575b5f5ffd5b610052600480360381019061004d91906100f0565b610084565b005b61006e6004803603810190610069919061012e565b61009d565b60405161007b9190610168565b60405180910390f35b805f5f8481526020019081526020015f20819055505050565b5f5f825f528060205260405f20805f525f518054805f5260205ff35b5f5ffd5b5f819050919050565b6100cf816100bd565b81146100d9575f5ffd5b50565b5f813590506100ea816100c6565b92915050565b5f5f60408385031215610106576101056100b9565b5b5f610113858286016100dc565b9250506020610124858286016100dc565b9150509250929050565b5f60208284031215610143576101426100b9565b5b5f610150848285016100dc565b91505092915050565b610162816100bd565b82525050565b5f60208201905061017b5f830184610159565b9291505056fea26469706673582212205ad72b391295a93c6d4340fea8d42da11efd4c92828a1d14c11922cee6db47bf64736f6c634300081e0033","linkReferences":{}},"methodIdentifiers":{"main(uint256)":"ab3ae255","setValue(uint256,uint256)":"7b8d56e3"},"id":64}