{"abi":[{"type":"function","name":"main","inputs":[{"name":"x","type":"int256","internalType":"int256"}],"outputs":[{"name":"","type":"uint256","internalType":"uint256"}],"stateMutability":"pure"}],"bytecode":{"object":"0x6080604052348015600e575f5ffd5b506101558061001c5f395ff3fe608060405234801561000f575f5ffd5b5060043610610029575f3560e01c8063384622f61461002d575b5f5ffd5b610047600480360381019061004291906100c3565b61005d565b6040516100549190610106565b60405180910390f35b5f5f5f83121561007357825f5260015f51190190505b5f83115f8412151615610084578290505b805f5260205ff35b5f5ffd5b5f819050919050565b6100a281610090565b81146100ac575f5ffd5b50565b5f813590506100bd81610099565b92915050565b5f602082840312156100d8576100d761008c565b5b5f6100e5848285016100af565b91505092915050565b5f819050919050565b610100816100ee565b82525050565b5f6020820190506101195f8301846100f7565b9291505056fea2646970667358221220e79508f8bd9b42cd58f670b5e2ccbf973d952ca584fb553367d97bf0a0ba147164736f6c634300081e0033","linkReferences":{}},"methodIdentifiers":{"main(int256)":"384622f6"},"id":24}