{"abi":[{"type":"function","name":"main","inputs":[],"outputs":[{"name":"","type":"uint256","internalType":"uint256"}],"stateMutability":"view"},{"type":"function","name":"setValue","inputs":[{"name":"v1","type":"uint64","internalType":"uint64"},{"name":"v2","type":"uint64","internalType":"uint64"},{"name":"v3","type":"uint64","internalType":"uint64"},{"name":"v4","type":"uint64","internalType":"uint64"}],"outputs":[],"stateMutability":"nonpayable"}],"bytecode":{"object":"0x6080604052348015600e575f5ffd5b506102478061001c5f395ff3fe608060405234801561000f575f5ffd5b5060043610610034575f3560e01c80639e30124f14610038578063dffeadd014610054575b5f5ffd5b610052600480360381019061004d919061017c565b610072565b005b61005c610117565b60405161006991906101f8565b60405180910390f35b835f5f6101000a81548167ffffffffffffffff021916908367ffffffffffffffff160217905550825f60086101000a81548167ffffffffffffffff021916908367ffffffffffffffff160217905550815f60106101000a81548167ffffffffffffffff021916908367ffffffffffffffff160217905550805f60186101000a81548167ffffffffffffffff021916908367ffffffffffffffff16021790555050505050565b5f5f5460018060401c0360801c1980821660401b91508160c01c9150815f5260205ff35b5f5ffd5b5f67ffffffffffffffff82169050919050565b61015b8161013f565b8114610165575f5ffd5b50565b5f8135905061017681610152565b92915050565b5f5f5f5f608085870312156101945761019361013b565b5b5f6101a187828801610168565b94505060206101b287828801610168565b93505060406101c387828801610168565b92505060606101d487828801610168565b91505092959194509250565b5f819050919050565b6101f2816101e0565b82525050565b5f60208201905061020b5f8301846101e9565b9291505056fea2646970667358221220b17808d1236f4673675c283f375176db9811350cad96e3cd52d5c790d777f84164736f6c634300081e0033","linkReferences":{}},"methodIdentifiers":{"main()":"dffeadd0","setValue(uint64,uint64,uint64,uint64)":"9e30124f"},"id":67}