{"abi":[{"type":"function","name":"main","inputs":[{"name":"dummy","type":"uint256","internalType":"uint256"},{"name":"deploymentBytecode","type":"bytes","internalType":"bytes"}],"outputs":[{"name":"addr","type":"address","internalType":"address"}],"stateMutability":"payable"}],"bytecode":{"object":"0x6080604052348015600e575f5ffd5b506102cf8061001c5f395ff3fe60806040526004361061001d575f3560e01c8063f1c5bd3214610021575b5f5ffd5b61003b600480360381019061003691906101e7565b610051565b6040516100489190610280565b60405180910390f35b5f6040516080518060a034f09250505092915050565b5f604051905090565b5f5ffd5b5f5ffd5b5f819050919050565b61008a81610078565b8114610094575f5ffd5b50565b5f813590506100a581610081565b92915050565b5f5ffd5b5f5ffd5b5f601f19601f8301169050919050565b7f4e487b71000000000000000000000000000000000000000000000000000000005f52604160045260245ffd5b6100f9826100b3565b810181811067ffffffffffffffff82111715610118576101176100c3565b5b80604052505050565b5f61012a610067565b905061013682826100f0565b919050565b5f67ffffffffffffffff821115610155576101546100c3565b5b61015e826100b3565b9050602081019050919050565b828183375f83830152505050565b5f61018b6101868461013b565b610121565b9050828152602081018484840111156101a7576101a66100af565b5b6101b284828561016b565b509392505050565b5f82601f8301126101ce576101cd6100ab565b5b81356101de848260208601610179565b91505092915050565b5f5f604083850312156101fd576101fc610070565b5b5f61020a85828601610097565b925050602083013567ffffffffffffffff81111561022b5761022a610074565b5b610237858286016101ba565b9150509250929050565b5f73ffffffffffffffffffffffffffffffffffffffff82169050919050565b5f61026a82610241565b9050919050565b61027a81610260565b82525050565b5f6020820190506102935f830184610271565b9291505056fea2646970667358221220b287f14fe05bf04767d50274510c92c72e20408f81af9ace8ec3bc0d39b0932264736f6c634300081e0033","linkReferences":{}},"methodIdentifiers":{"main(uint256,bytes)":"f1c5bd32"},"id":21}