{"abi":[{"type":"function","name":"main","inputs":[{"name":"emitter","type":"address","internalType":"address"},{"name":"id","type":"bytes32","internalType":"bytes32"},{"name":"num","type":"uint256","internalType":"uint256"}],"outputs":[],"stateMutability":"nonpayable"},{"type":"event","name":"MyEvent","inputs":[{"name":"emitter","type":"address","indexed":true,"internalType":"address"},{"name":"id","type":"bytes32","indexed":true,"internalType":"bytes32"},{"name":"num","type":"uint256","indexed":false,"internalType":"uint256"}],"anonymous":false}],"bytecode":{"object":"0x6080604052348015600e575f5ffd5b506101a48061001c5f395ff3fe608060405234801561000f575f5ffd5b5060043610610029575f3560e01c8063c113c1db1461002d575b5f5ffd5b6100476004803603810190610042919061011e565b610049565b005b8060805281835f60606080a3505050565b5f5ffd5b5f73ffffffffffffffffffffffffffffffffffffffff82169050919050565b5f6100878261005e565b9050919050565b6100978161007d565b81146100a1575f5ffd5b50565b5f813590506100b28161008e565b92915050565b5f819050919050565b6100ca816100b8565b81146100d4575f5ffd5b50565b5f813590506100e5816100c1565b92915050565b5f819050919050565b6100fd816100eb565b8114610107575f5ffd5b50565b5f81359050610118816100f4565b92915050565b5f5f5f606084860312156101355761013461005a565b5b5f610142868287016100a4565b9350506020610153868287016100d7565b92505060406101648682870161010a565b915050925092509256fea264697066735822122054c14ab272ae3f8592b76ea3b6534a03b4b527497ac6981f6271c44664a9a18c64736f6c634300081e0033","linkReferences":{}},"methodIdentifiers":{"main(address,bytes32,uint256)":"c113c1db"},"id":26}