{"abi":[{"type":"function","name":"getter","inputs":[],"outputs":[{"name":"","type":"uint256[]","internalType":"uint256[]"}],"stateMutability":"view"},{"type":"function","name":"lastElementSlotValue","inputs":[{"name":"s","type":"bytes32","internalType":"bytes32"}],"outputs":[{"name":"r","type":"uint256","internalType":"uint256"}],"stateMutability":"view"},{"type":"function","name":"main","inputs":[],"outputs":[],"stateMutability":"nonpayable"}],"bytecode":{"object":"0x60806040526040518060c00160405280601760ff168152602001600460ff168152602001601360ff168152602001600360ff168152602001602c60ff168152602001605860ff168152505f90600660569291906066565b503480156061575f5ffd5b5060ca565b828054828255905f5260205f2090810192821560a2579160200282015b8281111560a1578251829060ff169055916020019190600101906083565b5b50905060ad919060b1565b5090565b5b8082111560c6575f815f90555060010160b2565b5090565b6102d9806100d75f395ff3fe608060405234801561000f575f5ffd5b506004361061003f575f3560e01c8063993a04b714610043578063caa0add814610061578063dffeadd014610091575b5f5ffd5b61004b61009b565b60405161005891906101f9565b60405180910390f35b61007b60048036038101906100769190610250565b6100f0565b604051610088919061028a565b60405180910390f35b6100996100fa565b005b60605f8054806020026020016040519081016040528092919081815260200182805480156100e657602002820191905f5260205f20905b8154815260200190600101908083116100d2575b5050505050905090565b5f81549050919050565b7f290decd9548b62a8d60345a988386fc84ba6bc95484008f6362f93160ef3e5685f60018103805f52815460205f205f85556001820384555050505050565b5f81519050919050565b5f82825260208201905092915050565b5f819050602082019050919050565b5f819050919050565b61017481610162565b82525050565b5f610185838361016b565b60208301905092915050565b5f602082019050919050565b5f6101a782610139565b6101b18185610143565b93506101bc83610153565b805f5b838110156101ec5781516101d3888261017a565b97506101de83610191565b9250506001810190506101bf565b5085935050505092915050565b5f6020820190508181035f830152610211818461019d565b905092915050565b5f5ffd5b5f819050919050565b61022f8161021d565b8114610239575f5ffd5b50565b5f8135905061024a81610226565b92915050565b5f6020828403121561026557610264610219565b5b5f6102728482850161023c565b91505092915050565b61028481610162565b82525050565b5f60208201905061029d5f83018461027b565b9291505056fea26469706673582212201f4bcf943905cdd6478f63e62e8a793a68064b2f7c5580f91e87ffd85ea85d9a64736f6c634300081e0033","linkReferences":{}},"methodIdentifiers":{"getter()":"993a04b7","lastElementSlotValue(bytes32)":"caa0add8","main()":"dffeadd0"},"id":58}