{"abi":[{"type":"function","name":"main","inputs":[{"name":"index","type":"uint256","internalType":"uint256"},{"name":"value","type":"uint256","internalType":"uint256"}],"outputs":[],"stateMutability":"nonpayable"},{"type":"function","name":"writeHere","inputs":[{"name":"index","type":"uint256","internalType":"uint256"}],"outputs":[{"name":"","type":"uint256","internalType":"uint256"}],"stateMutability":"view"}],"bytecode":{"object":"0x6080604052348015600e575f5ffd5b506101ab8061001c5f395ff3fe608060405234801561000f575f5ffd5b5060043610610034575f3560e01c806316a58ab214610038578063cc572cf914610068575b5f5ffd5b610052600480360381019061004d91906100e4565b610084565b60405161005f919061011e565b60405180910390f35b610082600480360381019061007d9190610137565b610098565b005b5f602052805f5260405f205f915090505481565b5f825f528060205260405f2082815550505050565b5f5ffd5b5f819050919050565b6100c3816100b1565b81146100cd575f5ffd5b50565b5f813590506100de816100ba565b92915050565b5f602082840312156100f9576100f86100ad565b5b5f610106848285016100d0565b91505092915050565b610118816100b1565b82525050565b5f6020820190506101315f83018461010f565b92915050565b5f5f6040838503121561014d5761014c6100ad565b5b5f61015a858286016100d0565b925050602061016b858286016100d0565b915050925092905056fea26469706673582212200b8dc6d6016af765d923cac065fbc5fdbf3d784a18c4e1cf6c3134e75bfdf98f64736f6c634300081e0033","linkReferences":{}},"methodIdentifiers":{"main(uint256,uint256)":"cc572cf9","writeHere(uint256)":"16a58ab2"},"id":97}