{"abi":[{"type":"function","name":"main","inputs":[],"outputs":[{"name":"","type":"string","internalType":"string"},{"name":"","type":"string","internalType":"string"}],"stateMutability":"pure"}],"bytecode":{"object":"0x6080604052348015600e575f5ffd5b5061018c8061001c5f395ff3fe608060405234801561000f575f5ffd5b5060043610610029575f3560e01c8063dffeadd01461002d575b5f5ffd5b61003561004c565b604051610043929190610121565b60405180910390f35b6060807f48656c6c6f0000000000000000000000000000000000000000000000000000007f52617265536b696c6c730000000000000000000000000000000000000000000060405f526080602052600560405281606052600a6080528060a05260c05ff35b5f81519050919050565b5f82825260208201905092915050565b8281835e5f83830152505050565b5f601f19601f8301169050919050565b5f6100f3826100b1565b6100fd81856100bb565b935061010d8185602086016100cb565b610116816100d9565b840191505092915050565b5f6040820190508181035f83015261013981856100e9565b9050818103602083015261014d81846100e9565b9050939250505056fea2646970667358221220a159b069739ff311e484055c5709b0234b64f7895f64db88274730fb6f2dbad464736f6c634300081e0033","linkReferences":{}},"methodIdentifiers":{"main()":"dffeadd0"},"id":60}