{"abi":[{"type":"function","name":"main","inputs":[{"name":"to","type":"address","internalType":"address payable"},{"name":"amount","type":"uint256","internalType":"uint256"}],"outputs":[],"stateMutability":"payable"}],"bytecode":{"object":"0x6080604052348015600e575f5ffd5b506101538061001c5f395ff3fe60806040526004361061001d575f3560e01c8063fac45a5b14610021575b5f5ffd5b61003b600480360381019061003691906100df565b61003d565b005b6040515f815f8385875af150505050565b5f5ffd5b5f73ffffffffffffffffffffffffffffffffffffffff82169050919050565b5f61007b82610052565b9050919050565b61008b81610071565b8114610095575f5ffd5b50565b5f813590506100a681610082565b92915050565b5f819050919050565b6100be816100ac565b81146100c8575f5ffd5b50565b5f813590506100d9816100b5565b92915050565b5f5f604083850312156100f5576100f461004e565b5b5f61010285828601610098565b9250506020610113858286016100cb565b915050925092905056fea2646970667358221220ee99371c6be74a7d8b1dae089c81668f34f9ace913c9add1fd21ac7a818c2a9164736f6c634300081e0033","linkReferences":{}},"methodIdentifiers":{"main(address,uint256)":"fac45a5b"},"id":71}