{"abi":[{"type":"function","name":"main","inputs":[],"outputs":[{"name":"","type":"uint256","internalType":"uint256"}],"stateMutability":"view"},{"type":"function","name":"setValue","inputs":[{"name":"v1","type":"uint128","internalType":"uint128"},{"name":"v2","type":"uint128","internalType":"uint128"}],"outputs":[],"stateMutability":"nonpayable"}],"bytecode":{"object":"0x6080604052348015600e575f5ffd5b506101e28061001c5f395ff3fe608060405234801561000f575f5ffd5b5060043610610034575f3560e01c80638341732e14610038578063dffeadd014610054575b5f5ffd5b610052600480360381019061004d919061013d565b610072565b005b61005c6100e5565b6040516100699190610193565b60405180910390f35b815f5f6101000a8154816fffffffffffffffffffffffffffffffff02191690836fffffffffffffffffffffffffffffffff160217905550805f60106101000a8154816fffffffffffffffffffffffffffffffff02191690836fffffffffffffffffffffffffffffffff1602179055505050565b5f5f548060801c805f5260205ff35b5f5ffd5b5f6fffffffffffffffffffffffffffffffff82169050919050565b61011c816100f8565b8114610126575f5ffd5b50565b5f8135905061013781610113565b92915050565b5f5f60408385031215610153576101526100f4565b5b5f61016085828601610129565b925050602061017185828601610129565b9150509250929050565b5f819050919050565b61018d8161017b565b82525050565b5f6020820190506101a65f830184610184565b9291505056fea26469706673582212200bcb49da57ffd07eab2c13904edd7dd74969a76f6c37a8729c95a2cfd622080d64736f6c634300081e0033","linkReferences":{}},"methodIdentifiers":{"main()":"dffeadd0","setValue(uint128,uint128)":"8341732e"},"id":22}