{"abi":[{"type":"function","name":"main","inputs":[{"name":"x","type":"uint256","internalType":"uint256"},{"name":"i","type":"uint8","internalType":"uint8"}],"outputs":[{"name":"","type":"uint256","internalType":"uint256"}],"stateMutability":"pure"}],"bytecode":{"object":"0x6080604052348015600e575f5ffd5b506101748061001c5f395ff3fe608060405234801561000f575f5ffd5b5060043610610029575f3560e01c8063303dc10a1461002d575b5f5ffd5b610047600480360381019061004291906100d8565b61005d565b6040516100549190610125565b60405180910390f35b5f826001831b175f5260205ff35b5f5ffd5b5f819050919050565b6100818161006f565b811461008b575f5ffd5b50565b5f8135905061009c81610078565b92915050565b5f60ff82169050919050565b6100b7816100a2565b81146100c1575f5ffd5b50565b5f813590506100d2816100ae565b92915050565b5f5f604083850312156100ee576100ed61006b565b5b5f6100fb8582860161008e565b925050602061010c858286016100c4565b9150509250929050565b61011f8161006f565b82525050565b5f6020820190506101385f830184610116565b9291505056fea26469706673582212208b396c0e63b8034b12501ad5d07eebb0f907380051a3a8e4042c805466f93c2764736f6c634300081e0033","linkReferences":{}},"methodIdentifiers":{"main(uint256,uint8)":"303dc10a"},"id":19}