{"abi":[{"type":"function","name":"main","inputs":[{"name":"v","type":"uint256","internalType":"uint256"}],"outputs":[],"stateMutability":"nonpayable"},{"type":"function","name":"someValue","inputs":[],"outputs":[{"name":"","type":"uint128","internalType":"uint128"}],"stateMutability":"view"},{"type":"function","name":"writeHere","inputs":[],"outputs":[{"name":"","type":"uint128","internalType":"uint128"}],"stateMutability":"view"}],"bytecode":{"object":"0x608060405260015f5f6101000a8154816fffffffffffffffffffffffffffffffff02191690836fffffffffffffffffffffffffffffffff16021790555060075f60106101000a8154816fffffffffffffffffffffffffffffffff02191690836fffffffffffffffffffffffffffffffff160217905550348015607f575f5ffd5b506101d38061008d5f395ff3fe608060405234801561000f575f5ffd5b506004361061003f575f3560e01c80634a627e6114610043578063ab3ae25514610061578063d7c5157b1461007d575b5f5ffd5b61004b61009b565b6040516100589190610122565b60405180910390f35b61007b60048036038101906100769190610172565b6100bc565b005b6100856100d8565b6040516100929190610122565b60405180910390f35b5f60109054906101000a90046fffffffffffffffffffffffffffffffff1681565b5f5460018060801b031980821691508282179150815f55505050565b5f5f9054906101000a90046fffffffffffffffffffffffffffffffff1681565b5f6fffffffffffffffffffffffffffffffff82169050919050565b61011c816100f8565b82525050565b5f6020820190506101355f830184610113565b92915050565b5f5ffd5b5f819050919050565b6101518161013f565b811461015b575f5ffd5b50565b5f8135905061016c81610148565b92915050565b5f602082840312156101875761018661013b565b5b5f6101948482850161015e565b9150509291505056fea26469706673582212206789c118bd0c7b693744fb40f07c867a828ff7f49fc82b0fd9fe7fcd48a8efd864736f6c634300081e0033","linkReferences":{}},"methodIdentifiers":{"main(uint256)":"ab3ae255","someValue()":"4a627e61","writeHere()":"d7c5157b"},"id":98}