{"abi":[{"type":"function","name":"add","inputs":[{"name":"x","type":"uint256","internalType":"uint256"},{"name":"y","type":"uint256","internalType":"uint256"}],"outputs":[{"name":"","type":"uint256","internalType":"uint256"}],"stateMutability":"pure"},{"type":"function","name":"div","inputs":[{"name":"x","type":"uint256","internalType":"uint256"},{"name":"y","type":"uint256","internalType":"uint256"}],"outputs":[{"name":"","type":"uint256","internalType":"uint256"}],"stateMutability":"pure"},{"type":"function","name":"mul","inputs":[{"name":"x","type":"uint256","internalType":"uint256"},{"name":"y","type":"uint256","internalType":"uint256"}],"outputs":[{"name":"","type":"uint256","internalType":"uint256"}],"stateMutability":"pure"},{"type":"function","name":"sub","inputs":[{"name":"x","type":"uint256","internalType":"uint256"},{"name":"y","type":"uint256","internalType":"uint256"}],"outputs":[{"name":"","type":"uint256","internalType":"uint256"}],"stateMutability":"pure"}],"bytecode":{"object":"0x6080604052348015600e575f5ffd5b506102118061001c5f395ff3fe608060405234801561000f575f5ffd5b506004361061004a575f3560e01c8063771602f71461004e578063a391c15b1461007e578063b67d77c5146100ae578063c8a4ac9c146100de575b5f5ffd5b61006860048036038101906100639190610175565b61010e565b60405161007591906101c2565b60405180910390f35b61009860048036038101906100939190610175565b61011a565b6040516100a591906101c2565b60405180910390f35b6100c860048036038101906100c39190610175565b610126565b6040516100d591906101c2565b60405180910390f35b6100f860048036038101906100f39190610175565b610132565b60405161010591906101c2565b60405180910390f35b5f818301805f5260205ff35b5f818304805f5260205ff35b5f818303805f5260205ff35b5f818302805f5260205ff35b5f5ffd5b5f819050919050565b61015481610142565b811461015e575f5ffd5b50565b5f8135905061016f8161014b565b92915050565b5f5f6040838503121561018b5761018a61013e565b5b5f61019885828601610161565b92505060206101a985828601610161565b9150509250929050565b6101bc81610142565b82525050565b5f6020820190506101d55f8301846101b3565b9291505056fea26469706673582212200bf515f05d9d5427cfc2082e54eeb267188a09226aeda7e0165342b045c49c1864736f6c634300081e0033","linkReferences":{}},"methodIdentifiers":{"add(uint256,uint256)":"771602f7","div(uint256,uint256)":"a391c15b","mul(uint256,uint256)":"c8a4ac9c","sub(uint256,uint256)":"b67d77c5"},"id":32}