{"abi":[{"type":"function","name":"main","inputs":[{"name":"emitter","type":"address","internalType":"address"},{"name":"players","type":"address[]","internalType":"address[]"},{"name":"scores","type":"uint256[]","internalType":"uint256[]"}],"outputs":[],"stateMutability":"nonpayable"},{"type":"event","name":"MyEvent","inputs":[{"name":"emitter","type":"address","indexed":true,"internalType":"address"},{"name":"players","type":"address[]","indexed":false,"internalType":"address[]"},{"name":"scores","type":"uint256[]","indexed":false,"internalType":"uint256[]"}],"anonymous":false}],"bytecode":{"object":"0x6080604052348015600e575f5ffd5b506104048061001c5f395ff3fe608060405234801561000f575f5ffd5b5060043610610029575f3560e01c8063822550321461002d575b5f5ffd5b61004760048036038101906100429190610346565b610049565b005b81518151835f526040805260606020830201606052847f06af3d8f9866c9f54dcf425d9da9f75849af90454a25bca9df5fb24d80683e6a60208084026060602087020101016040a25050505050565b5f604051905090565b5f5ffd5b5f5ffd5b5f73ffffffffffffffffffffffffffffffffffffffff82169050919050565b5f6100d2826100a9565b9050919050565b6100e2816100c8565b81146100ec575f5ffd5b50565b5f813590506100fd816100d9565b92915050565b5f5ffd5b5f601f19601f8301169050919050565b7f4e487b71000000000000000000000000000000000000000000000000000000005f52604160045260245ffd5b61014d82610107565b810181811067ffffffffffffffff8211171561016c5761016b610117565b5b80604052505050565b5f61017e610098565b905061018a8282610144565b919050565b5f67ffffffffffffffff8211156101a9576101a8610117565b5b602082029050602081019050919050565b5f5ffd5b5f6101d06101cb8461018f565b610175565b905080838252602082019050602084028301858111156101f3576101f26101ba565b5b835b8181101561021c578061020888826100ef565b8452602084019350506020810190506101f5565b5050509392505050565b5f82601f83011261023a57610239610103565b5b813561024a8482602086016101be565b91505092915050565b5f67ffffffffffffffff82111561026d5761026c610117565b5b602082029050602081019050919050565b5f819050919050565b6102908161027e565b811461029a575f5ffd5b50565b5f813590506102ab81610287565b92915050565b5f6102c36102be84610253565b610175565b905080838252602082019050602084028301858111156102e6576102e56101ba565b5b835b8181101561030f57806102fb888261029d565b8452602084019350506020810190506102e8565b5050509392505050565b5f82601f83011261032d5761032c610103565b5b813561033d8482602086016102b1565b91505092915050565b5f5f5f6060848603121561035d5761035c6100a1565b5b5f61036a868287016100ef565b935050602084013567ffffffffffffffff81111561038b5761038a6100a5565b5b61039786828701610226565b925050604084013567ffffffffffffffff8111156103b8576103b76100a5565b5b6103c486828701610319565b915050925092509256fea26469706673582212208ceefff1ee36e6c57fb17a863e4555b067d884ae938340f8ba11d40a1b04238a64736f6c634300081e0033","linkReferences":{}},"methodIdentifiers":{"main(address,address[],uint256[])":"82255032"},"id":43}