{"abi":[{"type":"function","name":"main","inputs":[{"name":"x","type":"uint256","internalType":"uint256"},{"name":"y","type":"uint256","internalType":"uint256"}],"outputs":[{"name":"","type":"uint256","internalType":"uint256"}],"stateMutability":"pure"}],"bytecode":{"object":"0x6080604052348015600e575f5ffd5b506101578061001c5f395ff3fe608060405234801561000f575f5ffd5b5060043610610029575f3560e01c8063cc572cf91461002d575b5f5ffd5b610047600480360381019061004291906100bb565b61005d565b6040516100549190610108565b60405180910390f35b5f8183101561006e57815f5260205ff35b8282101561007e57825f5260205ff35b92915050565b5f5ffd5b5f819050919050565b61009a81610088565b81146100a4575f5ffd5b50565b5f813590506100b581610091565b92915050565b5f5f604083850312156100d1576100d0610084565b5b5f6100de858286016100a7565b92505060206100ef858286016100a7565b9150509250929050565b61010281610088565b82525050565b5f60208201905061011b5f8301846100f9565b9291505056fea2646970667358221220cbfa1150bd4ce04dc20ff6c9eaae4b05a1aace57bb9b5323a0d73d8640909b1e64736f6c634300081e0033","linkReferences":{}},"methodIdentifiers":{"main(uint256,uint256)":"cc572cf9"},"id":56}