{"abi":[{"type":"function","name":"main","inputs":[{"name":"","type":"uint256","internalType":"uint256"},{"name":"","type":"uint256","internalType":"uint256"},{"name":"","type":"uint256","internalType":"uint256"}],"outputs":[{"name":"","type":"bytes32","internalType":"bytes32"}],"stateMutability":"pure"}],"bytecode":{"object":"0x6080604052348015600e575f5ffd5b5061015e8061001c5f395ff3fe608060405234801561000f575f5ffd5b5060043610610029575f3560e01c8063fd20650c1461002d575b5f5ffd5b610047600480360381019061004291906100a7565b61005d565b604051610054919061010f565b60405180910390f35b5f602435805f5260205f20805f5260205ff35b5f5ffd5b5f819050919050565b61008681610074565b8114610090575f5ffd5b50565b5f813590506100a18161007d565b92915050565b5f5f5f606084860312156100be576100bd610070565b5b5f6100cb86828701610093565b93505060206100dc86828701610093565b92505060406100ed86828701610093565b9150509250925092565b5f819050919050565b610109816100f7565b82525050565b5f6020820190506101225f830184610100565b9291505056fea26469706673582212202ea1a661801597a29d050f6d939f60e82ffbc98ce8b24a0ee487d55f5b86365064736f6c634300081e0033","linkReferences":{}},"methodIdentifiers":{"main(uint256,uint256,uint256)":"fd20650c"},"id":51}