{"abi":[{"type":"function","name":"main","inputs":[{"name":"index","type":"uint256","internalType":"uint256"}],"outputs":[{"name":"","type":"uint256","internalType":"uint256"}],"stateMutability":"view"},{"type":"function","name":"setValue","inputs":[{"name":"i","type":"uint256","internalType":"uint256"},{"name":"v","type":"uint256","internalType":"uint256"},{"name":"s1","type":"uint256","internalType":"uint256"},{"name":"s2","type":"uint128","internalType":"uint128"},{"name":"s3","type":"uint128","internalType":"uint128"},{"name":"s4","type":"uint256","internalType":"uint256"},{"name":"s5","type":"uint256","internalType":"uint256"}],"outputs":[],"stateMutability":"nonpayable"}],"bytecode":{"object":"0x608060405260075f553480156012575f5ffd5b506102ed806100205f395ff3fe608060405234801561000f575f5ffd5b5060043610610034575f3560e01c80639bc35f7d14610038578063ab3ae25514610054575b5f5ffd5b610052600480360381019061004d91906101c7565b610084565b005b61006e60048036038101906100699190610264565b610134565b60405161007b919061029e565b60405180910390f35b8460015f018190555083600180015f6101000a8154816fffffffffffffffffffffffffffffffff02191690836fffffffffffffffffffffffffffffffff160217905550826001800160106101000a8154816fffffffffffffffffffffffffffffffff02191690836fffffffffffffffffffffffffffffffff160217905550816001600301819055508560016002015f8981526020019081526020015f2081905550805f8190555050505050505050565b5f815f52600360205260405f208054805f5260205ff35b5f5ffd5b5f819050919050565b6101618161014f565b811461016b575f5ffd5b50565b5f8135905061017c81610158565b92915050565b5f6fffffffffffffffffffffffffffffffff82169050919050565b6101a681610182565b81146101b0575f5ffd5b50565b5f813590506101c18161019d565b92915050565b5f5f5f5f5f5f5f60e0888a0312156101e2576101e161014b565b5b5f6101ef8a828b0161016e565b97505060206102008a828b0161016e565b96505060406102118a828b0161016e565b95505060606102228a828b016101b3565b94505060806102338a828b016101b3565b93505060a06102448a828b0161016e565b92505060c06102558a828b0161016e565b91505092959891949750929550565b5f602082840312156102795761027861014b565b5b5f6102868482850161016e565b91505092915050565b6102988161014f565b82525050565b5f6020820190506102b15f83018461028f565b9291505056fea2646970667358221220f228db2d8a7eaeb405f5c561071ed391b84219431f61f721a39a6be4ad5c254c64736f6c634300081e0033","linkReferences":{}},"methodIdentifiers":{"main(uint256)":"ab3ae255","setValue(uint256,uint256,uint256,uint128,uint128,uint256,uint256)":"9bc35f7d"},"id":65}