{"abi":[{"type":"function","name":"main","inputs":[{"name":"a","type":"uint256","internalType":"uint256"},{"name":"b","type":"uint256","internalType":"uint256"},{"name":"c","type":"uint256","internalType":"uint256"}],"outputs":[],"stateMutability":"nonpayable"},{"type":"function","name":"result","inputs":[],"outputs":[{"name":"","type":"uint256","internalType":"uint256"}],"stateMutability":"view"}],"bytecode":{"object":"0x6080604052348015600e575f5ffd5b506101938061001c5f395ff3fe608060405234801561000f575f5ffd5b5060043610610034575f3560e01c80636537214714610038578063fd20650c14610056575b5f5ffd5b610040610072565b60405161004d91906100c6565b60405180910390f35b610070600480360381019061006b919061010d565b610077565b005b5f5481565b8183111561008457600a5f555b8082118284111516156100965760145f555b808211158284111516156100a957601e5f555b505050565b5f819050919050565b6100c0816100ae565b82525050565b5f6020820190506100d95f8301846100b7565b92915050565b5f5ffd5b6100ec816100ae565b81146100f6575f5ffd5b50565b5f81359050610107816100e3565b92915050565b5f5f5f60608486031215610124576101236100df565b5b5f610131868287016100f9565b9350506020610142868287016100f9565b9250506040610153868287016100f9565b915050925092509256fea264697066735822122041fdbbcc47eb3d06cdedf7081ffee6175dbb5da1d18330b085f5db8aa441e5a364736f6c634300081e0033","linkReferences":{}},"methodIdentifiers":{"main(uint256,uint256,uint256)":"fd20650c","result()":"65372147"},"id":91}