{"abi":[{"type":"function","name":"balances","inputs":[{"name":"user","type":"address","internalType":"address"},{"name":"token","type":"address","internalType":"address"}],"outputs":[{"name":"","type":"uint256","internalType":"uint256"}],"stateMutability":"view"},{"type":"function","name":"main","inputs":[{"name":"user","type":"address","internalType":"address"},{"name":"token","type":"address","internalType":"address"}],"outputs":[{"name":"","type":"uint256","internalType":"uint256"}],"stateMutability":"view"},{"type":"function","name":"setValue","inputs":[{"name":"user","type":"address","internalType":"address"},{"name":"token","type":"address","internalType":"address"},{"name":"value","type":"uint256","internalType":"uint256"}],"outputs":[],"stateMutability":"nonpayable"}],"bytecode":{"object":"0x6080604052348015600e575f5ffd5b506102fe8061001c5f395ff3fe608060405234801561000f575f5ffd5b506004361061003f575f3560e01c80631840e8101461004357806349c37f8c1461005f578063c23f001f1461008f575b5f5ffd5b61005d60048036038101906100589190610212565b6100bf565b005b61007960048036038101906100749190610262565b610140565b60405161008691906102af565b60405180910390f35b6100a960048036038101906100a49190610262565b610162565b6040516100b691906102af565b60405180910390f35b805f5f8573ffffffffffffffffffffffffffffffffffffffff1673ffffffffffffffffffffffffffffffffffffffff1681526020019081526020015f205f8473ffffffffffffffffffffffffffffffffffffffff1673ffffffffffffffffffffffffffffffffffffffff1681526020019081526020015f2081905550505050565b5f5f835f528060205260405f20835f528060205260405f208054805f5260205ff35b5f602052815f5260405f20602052805f5260405f205f91509150505481565b5f5ffd5b5f73ffffffffffffffffffffffffffffffffffffffff82169050919050565b5f6101ae82610185565b9050919050565b6101be816101a4565b81146101c8575f5ffd5b50565b5f813590506101d9816101b5565b92915050565b5f819050919050565b6101f1816101df565b81146101fb575f5ffd5b50565b5f8135905061020c816101e8565b92915050565b5f5f5f6060848603121561022957610228610181565b5b5f610236868287016101cb565b9350506020610247868287016101cb565b9250506040610258868287016101fe565b9150509250925092565b5f5f6040838503121561027857610277610181565b5b5f610285858286016101cb565b9250506020610296858286016101cb565b9150509250929050565b6102a9816101df565b82525050565b5f6020820190506102c25f8301846102a0565b9291505056fea2646970667358221220f10e9c94fe02478701c4e4af405dc53d0baaa6e2e2da814de5d36cccd5faf96564736f6c634300081e0033","linkReferences":{}},"methodIdentifiers":{"balances(address,address)":"c23f001f","main(address,address)":"49c37f8c","setValue(address,address,uint256)":"1840e810"},"id":45}