{"abi":[{"type":"function","name":"main","inputs":[{"name":"y","type":"uint256","internalType":"uint256"}],"outputs":[{"name":"","type":"uint256","internalType":"uint256"}],"stateMutability":"pure"}],"bytecode":{"object":"0x6080604052348015600e575f5ffd5b5061016b8061001c5f395ff3fe608060405234801561000f575f5ffd5b5060043610610029575f3560e01c8063ab3ae2551461002d575b5f5ffd5b610047600480360381019061004291906100e2565b61005d565b604051610054919061011c565b60405180910390f35b5f5f600383111561008f57829050600160028404015b8181101561008d5780915060028182860401049050610073565b505b5f831415600384111516156100a357600190505b805f5260205ff35b5f5ffd5b5f819050919050565b6100c1816100af565b81146100cb575f5ffd5b50565b5f813590506100dc816100b8565b92915050565b5f602082840312156100f7576100f66100ab565b5b5f610104848285016100ce565b91505092915050565b610116816100af565b82525050565b5f60208201905061012f5f83018461010d565b9291505056fea264697066735822122069cb96bb3b00f1134cafa732c54d138a0192951e92d25be201170c8326746c9c64736f6c634300081e0033","linkReferences":{}},"methodIdentifiers":{"main(uint256)":"ab3ae255"},"id":19}