{"abi":[{"type":"function","name":"main","inputs":[{"name":"_bool","type":"bool","internalType":"bool"}],"outputs":[{"name":"","type":"bool","internalType":"bool"}],"stateMutability":"pure"}],"bytecode":{"object":"0x6080604052348015600e575f5ffd5b506101328061001c5f395ff3fe6080604052348015600e575f5ffd5b50600436106026575f3560e01c8063de13eddf14602a575b5f5ffd5b60406004803603810190603c919060b2565b6054565b604051604b919060e5565b60405180910390f35b5f815f8114606757600181146070576078565b60015f5260205ff35b5f5f5260205ff35b50919050565b5f5ffd5b5f8115159050919050565b6094816082565b8114609d575f5ffd5b50565b5f8135905060ac81608d565b92915050565b5f6020828403121560c45760c3607e565b5b5f60cf8482850160a0565b91505092915050565b60df816082565b82525050565b5f60208201905060f65f83018460d8565b9291505056fea26469706673582212203aeebf41ba4186e3e2734b9b649a119b82e69d8597560cd6861788680433752e64736f6c634300081e0033","linkReferences":{}},"methodIdentifiers":{"main(bool)":"de13eddf"},"id":72}