{"abi":[{"type":"function","name":"main","inputs":[{"name":"token","type":"address","internalType":"address"},{"name":"amount","type":"uint256","internalType":"uint256"}],"outputs":[],"stateMutability":"nonpayable"}],"bytecode":{"object":"0x6080604052348015600e575f5ffd5b5061017e8061001c5f395ff3fe608060405234801561000f575f5ffd5b5060043610610029575f3560e01c8063fac45a5b1461002d575b5f5ffd5b6100476004803603810190610042919061010a565b610049565b005b60405163095ea7b360e01b81528160a4528260048201526020816044835f875af180610073575f5ffd5b50505050565b5f5ffd5b5f73ffffffffffffffffffffffffffffffffffffffff82169050919050565b5f6100a68261007d565b9050919050565b6100b68161009c565b81146100c0575f5ffd5b50565b5f813590506100d1816100ad565b92915050565b5f819050919050565b6100e9816100d7565b81146100f3575f5ffd5b50565b5f81359050610104816100e0565b92915050565b5f5f604083850312156101205761011f610079565b5b5f61012d858286016100c3565b925050602061013e858286016100f6565b915050925092905056fea2646970667358221220d09c0b80634a3c81b287335bdcbb4a0968a4c4a9f86a97d62daf39137b8135f364736f6c634300081e0033","linkReferences":{}},"methodIdentifiers":{"main(address,uint256)":"fac45a5b"},"id":20}