{"abi":[{"type":"constructor","inputs":[],"stateMutability":"nonpayable"},{"type":"function","name":"approve","inputs":[{"name":"to","type":"address","internalType":"address"},{"name":"tokenId","type":"uint256","internalType":"uint256"}],"outputs":[],"stateMutability":"nonpayable"},{"type":"function","name":"balanceOf","inputs":[{"name":"owner","type":"address","internalType":"address"}],"outputs":[{"name":"","type":"uint256","internalType":"uint256"}],"stateMutability":"view"},{"type":"function","name":"getApproved","inputs":[{"name":"tokenId","type":"uint256","internalType":"uint256"}],"outputs":[{"name":"","type":"address","internalType":"address"}],"stateMutability":"view"},{"type":"function","name":"isApprovedForAll","inputs":[{"name":"owner","type":"address","internalType":"address"},{"name":"operator","type":"address","internalType":"address"}],"outputs":[{"name":"","type":"bool","internalType":"bool"}],"stateMutability":"view"},{"type":"function","name":"mintNft","inputs":[{"name":"_tokenURI","type":"string","internalType":"string"}],"outputs":[],"stateMutability":"nonpayable"},{"type":"function","name":"name","inputs":[],"outputs":[{"name":"","type":"string","internalType":"string"}],"stateMutability":"view"},{"type":"function","name":"ownerOf","inputs":[{"name":"tokenId","type":"uint256","internalType":"uint256"}],"outputs":[{"name":"","type":"address","internalType":"address"}],"stateMutability":"view"},{"type":"function","name":"safeTransferFrom","inputs":[{"name":"from","type":"address","internalType":"address"},{"name":"to","type":"address","internalType":"address"},{"name":"tokenId","type":"uint256","internalType":"uint256"}],"outputs":[],"stateMutability":"nonpayable"},{"type":"function","name":"safeTransferFrom","inputs":[{"name":"from","type":"address","internalType":"address"},{"name":"to","type":"address","internalType":"address"},{"name":"tokenId","type":"uint256","internalType":"uint256"},{"name":"data","type":"bytes","internalType":"bytes"}],"outputs":[],"stateMutability":"nonpayable"},{"type":"function","name":"setApprovalForAll","inputs":[{"name":"operator","type":"address","internalType":"address"},{"name":"approved","type":"bool","internalType":"bool"}],"outputs":[],"stateMutability":"nonpayable"},{"type":"function","name":"supportsInterface","inputs":[{"name":"interfaceId","type":"bytes4","internalType":"bytes4"}],"outputs":[{"name":"","type":"bool","internalType":"bool"}],"stateMutability":"view"},{"type":"function","name":"symbol","inputs":[],"outputs":[{"name":"","type":"string","internalType":"string"}],"stateMutability":"view"},{"type":"function","name":"tokenURI","inputs":[{"name":"tokenId","type":"uint256","internalType":"uint256"}],"outputs":[{"name":"","type":"string","internalType":"string"}],"stateMutability":"view"},{"type":"function","name":"transferFrom","inputs":[{"name":"from","type":"address","internalType":"address"},{"name":"to","type":"address","internalType":"address"},{"name":"tokenId","type":"uint256","internalType":"uint256"}],"outputs":[],"stateMutability":"nonpayable"},{"type":"event","name":"Approval","inputs":[{"name":"owner","type":"address","indexed":true,"internalType":"address"},{"name":"approved","type":"address","indexed":true,"internalType":"address"},{"name":"tokenId","type":"uint256","indexed":true,"internalType":"uint256"}],"anonymous":false},{"type":"event","name":"ApprovalForAll","inputs":[{"name":"owner","type":"address","indexed":true,"internalType":"address"},{"name":"operator","type":"address","indexed":true,"internalType":"address"},{"name":"approved","type":"bool","indexed":false,"internalType":"bool"}],"anonymous":false},{"type":"event","name":"Transfer","inputs":[{"name":"from","type":"address","indexed":true,"internalType":"address"},{"name":"to","type":"address","indexed":true,"internalType":"address"},{"name":"tokenId","type":"uint256","indexed":true,"internalType":"uint256"}],"anonymous":false},{"type":"error","name":"ERC721IncorrectOwner","inputs":[{"name":"sender","type":"address","internalType":"address"},{"name":"tokenId","type":"uint256","internalType":"uint256"},{"name":"owner","type":"address","internalType":"address"}]},{"type":"error","name":"ERC721InsufficientApproval","inputs":[{"name":"operator","type":"address","internalType":"address"},{"name":"tokenId","type":"uint256","internalType":"uint256"}]},{"type":"error","name":"ERC721InvalidApprover","inputs":[{"name":"approver","type":"address","internalType":"address"}]},{"type":"error","name":"ERC721InvalidOperator","inputs":[{"name":"operator","type":"address","internalType":"address"}]},{"type":"error","name":"ERC721InvalidOwner","inputs":[{"name":"owner","type":"address","internalType":"address"}]},{"type":"error","name":"ERC721InvalidReceiver","inputs":[{"name":"receiver","type":"address","internalType":"address"}]},{"type":"error","name":"ERC721InvalidSender","inputs":[{"name":"sender","type":"address","internalType":"address"}]},{"type":"error","name":"ERC721NonexistentToken","inputs":[{"name":"tokenId","type":"uint256","internalType":"uint256"}]}],"bytecode":{"object":"0x608060405234801561000f575f5ffd5b506040518060400160405280600581526020017f446f6769650000000000000000000000000000000000000000000000000000008152506040518060400160405280600381526020017f444f470000000000000000000000000000000000000000000000000000000000815250815f908161008a91906102e6565b50806001908161009a91906102e6565b5050505f6006819055506103b5565b5f81519050919050565b7f4e487b71000000000000000000000000000000000000000000000000000000005f52604160045260245ffd5b7f4e487b71000000000000000000000000000000000000000000000000000000005f52602260045260245ffd5b5f600282049050600182168061012457607f821691505b602082108103610137576101366100e0565b5b50919050565b5f819050815f5260205f209050919050565b5f6020601f8301049050919050565b5f82821b905092915050565b5f600883026101997fffffffffffffffffffffffffffffffffffffffffffffffffffffffffffffffff8261015e565b6101a3868361015e565b95508019841693508086168417925050509392505050565b5f819050919050565b5f819050919050565b5f6101e76101e26101dd846101bb565b6101c4565b6101bb565b9050919050565b5f819050919050565b610200836101cd565b61021461020c826101ee565b84845461016a565b825550505050565b5f5f905090565b61022b61021c565b6102368184846101f7565b505050565b5b818110156102595761024e5f82610223565b60018101905061023c565b5050565b601f82111561029e5761026f8161013d565b6102788461014f565b81016020851015610287578190505b61029b6102938561014f565b83018261023b565b50505b505050565b5f82821c905092915050565b5f6102be5f19846008026102a3565b1980831691505092915050565b5f6102d683836102af565b9150826002028217905092915050565b6102ef826100a9565b67ffffffffffffffff811115610308576103076100b3565b5b610312825461010d565b61031d82828561025d565b5f60209050601f83116001811461034e575f841561033c578287015190505b61034685826102cb565b8655506103ad565b601f19841661035c8661013d565b5f5b828110156103835784890151825560018201915060208501945060208101905061035e565b868310156103a0578489015161039c601f8916826102af565b8355505b6001600288020188555050505b505050505050565b611ebf806103c25f395ff3fe608060405234801561000f575f5ffd5b50600436106100e8575f3560e01c806370a082311161008a578063b88d4fde11610064578063b88d4fde14610258578063c87b56dd14610274578063da86f4a9146102a4578063e985e9c5146102c0576100e8565b806370a08231146101ee57806395d89b411461021e578063a22cb4651461023c576100e8565b8063095ea7b3116100c6578063095ea7b31461016a57806323b872dd1461018657806342842e0e146101a25780636352211e146101be576100e8565b806301ffc9a7146100ec57806306fdde031461011c578063081812fc1461013a575b5f5ffd5b6101066004803603810190610101919061142c565b6102f0565b6040516101139190611471565b60405180910390f35b6101246103d1565b60405161013191906114fa565b60405180910390f35b610154600480360381019061014f919061154d565b610460565b60405161016191906115b7565b60405180910390f35b610184600480360381019061017f91906115fa565b61047b565b005b6101a0600480360381019061019b9190611638565b610491565b005b6101bc60048036038101906101b79190611638565b610590565b005b6101d860048036038101906101d3919061154d565b6105af565b6040516101e591906115b7565b60405180910390f35b61020860048036038101906102039190611688565b6105c0565b60405161021591906116c2565b60405180910390f35b610226610676565b60405161023391906114fa565b60405180910390f35b61025660048036038101906102519190611705565b610706565b005b610272600480360381019061026d919061186f565b61071c565b005b61028e6004803603810190610289919061154d565b610741565b60405161029b91906114fa565b60405180910390f35b6102be60048036038101906102b9919061198d565b6107e2565b005b6102da60048036038101906102d591906119d4565b610829565b6040516102e79190611471565b60405180910390f35b5f7f80ac58cd000000000000000000000000000000000000000000000000000000007bffffffffffffffffffffffffffffffffffffffffffffffffffffffff1916827bffffffffffffffffffffffffffffffffffffffffffffffffffffffff191614806103ba57507f5b5e139f000000000000000000000000000000000000000000000000000000007bffffffffffffffffffffffffffffffffffffffffffffffffffffffff1916827bffffffffffffffffffffffffffffffffffffffffffffffffffffffff1916145b806103ca57506103c9826108b7565b5b9050919050565b60605f80546103df90611a3f565b80601f016020809104026020016040519081016040528092919081815260200182805461040b90611a3f565b80156104565780601f1061042d57610100808354040283529160200191610456565b820191905f5260205f20905b81548152906001019060200180831161043957829003601f168201915b5050505050905090565b5f61046a82610920565b50610474826109a6565b9050919050565b61048d82826104886109df565b6109e6565b5050565b5f73ffffffffffffffffffffffffffffffffffffffff168273ffffffffffffffffffffffffffffffffffffffff1603610501575f6040517f64a0ae920000000000000000000000000000000000000000000000000000000081526004016104f891906115b7565b60405180910390fd5b5f610514838361050f6109df565b6109f8565b90508373ffffffffffffffffffffffffffffffffffffffff168173ffffffffffffffffffffffffffffffffffffffff161461058a578382826040517f64283d7b00000000000000000000000000000000000000000000000000000000815260040161058193929190611a6f565b60405180910390fd5b50505050565b6105aa83838360405180602001604052805f81525061071c565b505050565b5f6105b982610920565b9050919050565b5f5f73ffffffffffffffffffffffffffffffffffffffff168273ffffffffffffffffffffffffffffffffffffffff1603610631575f6040517f89c62b6400000000000000000000000000000000000000000000000000000000815260040161062891906115b7565b60405180910390fd5b60035f8373ffffffffffffffffffffffffffffffffffffffff1673ffffffffffffffffffffffffffffffffffffffff1681526020019081526020015f20549050919050565b60606001805461068590611a3f565b80601f01602080910402602001604051908101604052809291908181526020018280546106b190611a3f565b80156106fc5780601f106106d3576101008083540402835291602001916106fc565b820191905f5260205f20905b8154815290600101906020018083116106df57829003601f168201915b5050505050905090565b6107186107116109df565b8383610c03565b5050565b610727848484610491565b61073b6107326109df565b85858585610d6c565b50505050565b606060075f8381526020019081526020015f20805461075f90611a3f565b80601f016020809104026020016040519081016040528092919081815260200182805461078b90611a3f565b80156107d65780601f106107ad576101008083540402835291602001916107d6565b820191905f5260205f20905b8154815290600101906020018083116107b957829003601f168201915b50505050509050919050565b8060075f60065481526020019081526020015f2090816108029190611c44565b5061080f33600654610f18565b60065f81548092919061082190611d40565b919050555050565b5f60055f8473ffffffffffffffffffffffffffffffffffffffff1673ffffffffffffffffffffffffffffffffffffffff1681526020019081526020015f205f8373ffffffffffffffffffffffffffffffffffffffff1673ffffffffffffffffffffffffffffffffffffffff1681526020019081526020015f205f9054906101000a900460ff16905092915050565b5f7f01ffc9a7000000000000000000000000000000000000000000000000000000007bffffffffffffffffffffffffffffffffffffffffffffffffffffffff1916827bffffffffffffffffffffffffffffffffffffffffffffffffffffffff1916149050919050565b5f5f61092b83610f35565b90505f73ffffffffffffffffffffffffffffffffffffffff168173ffffffffffffffffffffffffffffffffffffffff160361099d57826040517f7e27328900000000000000000000000000000000000000000000000000000000815260040161099491906116c2565b60405180910390fd5b80915050919050565b5f60045f8381526020019081526020015f205f9054906101000a900473ffffffffffffffffffffffffffffffffffffffff169050919050565b5f33905090565b6109f38383836001610f6e565b505050565b5f5f610a0384610f35565b90505f73ffffffffffffffffffffffffffffffffffffffff168373ffffffffffffffffffffffffffffffffffffffff1614610a4457610a4381848661112d565b5b5f73ffffffffffffffffffffffffffffffffffffffff168173ffffffffffffffffffffffffffffffffffffffff1614610acf57610a835f855f5f610f6e565b600160035f8373ffffffffffffffffffffffffffffffffffffffff1673ffffffffffffffffffffffffffffffffffffffff1681526020019081526020015f205f82825403925050819055505b5f73ffffffffffffffffffffffffffffffffffffffff168573ffffffffffffffffffffffffffffffffffffffff1614610b4e57600160035f8773ffffffffffffffffffffffffffffffffffffffff1673ffffffffffffffffffffffffffffffffffffffff1681526020019081526020015f205f82825401925050819055505b8460025f8681526020019081526020015f205f6101000a81548173ffffffffffffffffffffffffffffffffffffffff021916908373ffffffffffffffffffffffffffffffffffffffff160217905550838573ffffffffffffffffffffffffffffffffffffffff168273ffffffffffffffffffffffffffffffffffffffff167fddf252ad1be2c89b69c2b068fc378daa952ba7f163c4a11628f55a4df523b3ef60405160405180910390a4809150509392505050565b5f73ffffffffffffffffffffffffffffffffffffffff168273ffffffffffffffffffffffffffffffffffffffff1603610c7357816040517f5b08ba18000000000000000000000000000000000000000000000000000000008152600401610c6a91906115b7565b60405180910390fd5b8060055f8573ffffffffffffffffffffffffffffffffffffffff1673ffffffffffffffffffffffffffffffffffffffff1681526020019081526020015f205f8473ffffffffffffffffffffffffffffffffffffffff1673ffffffffffffffffffffffffffffffffffffffff1681526020019081526020015f205f6101000a81548160ff0219169083151502179055508173ffffffffffffffffffffffffffffffffffffffff168373ffffffffffffffffffffffffffffffffffffffff167f17307eab39ab6107e8899845ad3d59bd9653f200f220920489ca2b5937696c3183604051610d5f9190611471565b60405180910390a3505050565b5f8373ffffffffffffffffffffffffffffffffffffffff163b1115610f11578273ffffffffffffffffffffffffffffffffffffffff1663150b7a02868685856040518563ffffffff1660e01b8152600401610dca9493929190611dd9565b6020604051808303815f875af1925050508015610e0557506040513d601f19601f82011682018060405250810190610e029190611e37565b60015b610e86573d805f8114610e33576040519150601f19603f3d011682016040523d82523d5f602084013e610e38565b606091505b505f815103610e7e57836040517f64a0ae92000000000000000000000000000000000000000000000000000000008152600401610e7591906115b7565b60405180910390fd5b805160208201fd5b63150b7a0260e01b7bffffffffffffffffffffffffffffffffffffffffffffffffffffffff1916817bffffffffffffffffffffffffffffffffffffffffffffffffffffffff191614610f0f57836040517f64a0ae92000000000000000000000000000000000000000000000000000000008152600401610f0691906115b7565b60405180910390fd5b505b5050505050565b610f31828260405180602001604052805f8152506111f0565b5050565b5f60025f8381526020019081526020015f205f9054906101000a900473ffffffffffffffffffffffffffffffffffffffff169050919050565b8080610fa657505f73ffffffffffffffffffffffffffffffffffffffff168273ffffffffffffffffffffffffffffffffffffffff1614155b156110d8575f610fb584610920565b90505f73ffffffffffffffffffffffffffffffffffffffff168373ffffffffffffffffffffffffffffffffffffffff161415801561101f57508273ffffffffffffffffffffffffffffffffffffffff168173ffffffffffffffffffffffffffffffffffffffff1614155b801561103257506110308184610829565b155b1561107457826040517fa9fbf51f00000000000000000000000000000000000000000000000000000000815260040161106b91906115b7565b60405180910390fd5b81156110d657838573ffffffffffffffffffffffffffffffffffffffff168273ffffffffffffffffffffffffffffffffffffffff167f8c5be1e5ebec7d5bd14f71427d1e84f3dd0314c0f7b2291e5b200ac8c7c3b92560405160405180910390a45b505b8360045f8581526020019081526020015f205f6101000a81548173ffffffffffffffffffffffffffffffffffffffff021916908373ffffffffffffffffffffffffffffffffffffffff16021790555050505050565b611138838383611213565b6111eb575f73ffffffffffffffffffffffffffffffffffffffff168373ffffffffffffffffffffffffffffffffffffffff16036111ac57806040517f7e2732890000000000000000000000000000000000000000000000000000000081526004016111a391906116c2565b60405180910390fd5b81816040517f177e802f0000000000000000000000000000000000000000000000000000000081526004016111e2929190611e62565b60405180910390fd5b505050565b6111fa83836112d3565b61120e6112056109df565b5f858585610d6c565b505050565b5f5f73ffffffffffffffffffffffffffffffffffffffff168373ffffffffffffffffffffffffffffffffffffffff16141580156112ca57508273ffffffffffffffffffffffffffffffffffffffff168473ffffffffffffffffffffffffffffffffffffffff16148061128b575061128a8484610829565b5b806112c957508273ffffffffffffffffffffffffffffffffffffffff166112b1836109a6565b73ffffffffffffffffffffffffffffffffffffffff16145b5b90509392505050565b5f73ffffffffffffffffffffffffffffffffffffffff168273ffffffffffffffffffffffffffffffffffffffff1603611343575f6040517f64a0ae9200000000000000000000000000000000000000000000000000000000815260040161133a91906115b7565b60405180910390fd5b5f61134f83835f6109f8565b90505f73ffffffffffffffffffffffffffffffffffffffff168173ffffffffffffffffffffffffffffffffffffffff16146113c1575f6040517f73c6ac6e0000000000000000000000000000000000000000000000000000000081526004016113b891906115b7565b60405180910390fd5b505050565b5f604051905090565b5f5ffd5b5f5ffd5b5f7fffffffff0000000000000000000000000000000000000000000000000000000082169050919050565b61140b816113d7565b8114611415575f5ffd5b50565b5f8135905061142681611402565b92915050565b5f60208284031215611441576114406113cf565b5b5f61144e84828501611418565b91505092915050565b5f8115159050919050565b61146b81611457565b82525050565b5f6020820190506114845f830184611462565b92915050565b5f81519050919050565b5f82825260208201905092915050565b8281835e5f83830152505050565b5f601f19601f8301169050919050565b5f6114cc8261148a565b6114d68185611494565b93506114e68185602086016114a4565b6114ef816114b2565b840191505092915050565b5f6020820190508181035f83015261151281846114c2565b905092915050565b5f819050919050565b61152c8161151a565b8114611536575f5ffd5b50565b5f8135905061154781611523565b92915050565b5f60208284031215611562576115616113cf565b5b5f61156f84828501611539565b91505092915050565b5f73ffffffffffffffffffffffffffffffffffffffff82169050919050565b5f6115a182611578565b9050919050565b6115b181611597565b82525050565b5f6020820190506115ca5f8301846115a8565b92915050565b6115d981611597565b81146115e3575f5ffd5b50565b5f813590506115f4816115d0565b92915050565b5f5f604083850312156116105761160f6113cf565b5b5f61161d858286016115e6565b925050602061162e85828601611539565b9150509250929050565b5f5f5f6060848603121561164f5761164e6113cf565b5b5f61165c868287016115e6565b935050602061166d868287016115e6565b925050604061167e86828701611539565b9150509250925092565b5f6020828403121561169d5761169c6113cf565b5b5f6116aa848285016115e6565b91505092915050565b6116bc8161151a565b82525050565b5f6020820190506116d55f8301846116b3565b92915050565b6116e481611457565b81146116ee575f5ffd5b50565b5f813590506116ff816116db565b92915050565b5f5f6040838503121561171b5761171a6113cf565b5b5f611728858286016115e6565b9250506020611739858286016116f1565b9150509250929050565b5f5ffd5b5f5ffd5b7f4e487b71000000000000000000000000000000000000000000000000000000005f52604160045260245ffd5b611781826114b2565b810181811067ffffffffffffffff821117156117a05761179f61174b565b5b80604052505050565b5f6117b26113c6565b90506117be8282611778565b919050565b5f67ffffffffffffffff8211156117dd576117dc61174b565b5b6117e6826114b2565b9050602081019050919050565b828183375f83830152505050565b5f61181361180e846117c3565b6117a9565b90508281526020810184848401111561182f5761182e611747565b5b61183a8482856117f3565b509392505050565b5f82601f83011261185657611855611743565b5b8135611866848260208601611801565b91505092915050565b5f5f5f5f60808587031215611887576118866113cf565b5b5f611894878288016115e6565b94505060206118a5878288016115e6565b93505060406118b687828801611539565b925050606085013567ffffffffffffffff8111156118d7576118d66113d3565b5b6118e387828801611842565b91505092959194509250565b5f67ffffffffffffffff8211156119095761190861174b565b5b611912826114b2565b9050602081019050919050565b5f61193161192c846118ef565b6117a9565b90508281526020810184848401111561194d5761194c611747565b5b6119588482856117f3565b509392505050565b5f82601f83011261197457611973611743565b5b813561198484826020860161191f565b91505092915050565b5f602082840312156119a2576119a16113cf565b5b5f82013567ffffffffffffffff8111156119bf576119be6113d3565b5b6119cb84828501611960565b91505092915050565b5f5f604083850312156119ea576119e96113cf565b5b5f6119f7858286016115e6565b9250506020611a08858286016115e6565b9150509250929050565b7f4e487b71000000000000000000000000000000000000000000000000000000005f52602260045260245ffd5b5f6002820490506001821680611a5657607f821691505b602082108103611a6957611a68611a12565b5b50919050565b5f606082019050611a825f8301866115a8565b611a8f60208301856116b3565b611a9c60408301846115a8565b949350505050565b5f819050815f5260205f209050919050565b5f6020601f8301049050919050565b5f82821b905092915050565b5f60088302611b007fffffffffffffffffffffffffffffffffffffffffffffffffffffffffffffffff82611ac5565b611b0a8683611ac5565b95508019841693508086168417925050509392505050565b5f819050919050565b5f611b45611b40611b3b8461151a565b611b22565b61151a565b9050919050565b5f819050919050565b611b5e83611b2b565b611b72611b6a82611b4c565b848454611ad1565b825550505050565b5f5f905090565b611b89611b7a565b611b94818484611b55565b505050565b5b81811015611bb757611bac5f82611b81565b600181019050611b9a565b5050565b601f821115611bfc57611bcd81611aa4565b611bd684611ab6565b81016020851015611be5578190505b611bf9611bf185611ab6565b830182611b99565b50505b505050565b5f82821c905092915050565b5f611c1c5f1984600802611c01565b1980831691505092915050565b5f611c348383611c0d565b9150826002028217905092915050565b611c4d8261148a565b67ffffffffffffffff811115611c6657611c6561174b565b5b611c708254611a3f565b611c7b828285611bbb565b5f60209050601f831160018114611cac575f8415611c9a578287015190505b611ca48582611c29565b865550611d0b565b601f198416611cba86611aa4565b5f5b82811015611ce157848901518255600182019150602085019450602081019050611cbc565b86831015611cfe5784890151611cfa601f891682611c0d565b8355505b6001600288020188555050505b505050505050565b7f4e487b71000000000000000000000000000000000000000000000000000000005f52601160045260245ffd5b5f611d4a8261151a565b91507fffffffffffffffffffffffffffffffffffffffffffffffffffffffffffffffff8203611d7c57611d7b611d13565b5b600182019050919050565b5f81519050919050565b5f82825260208201905092915050565b5f611dab82611d87565b611db58185611d91565b9350611dc58185602086016114a4565b611dce816114b2565b840191505092915050565b5f608082019050611dec5f8301876115a8565b611df960208301866115a8565b611e0660408301856116b3565b8181036060830152611e188184611da1565b905095945050505050565b5f81519050611e3181611402565b92915050565b5f60208284031215611e4c57611e4b6113cf565b5b5f611e5984828501611e23565b91505092915050565b5f604082019050611e755f8301856115a8565b611e8260208301846116b3565b939250505056fea26469706673582212203ed4a84c7dfe27a0efb99fc6c5572697cf40cddffccb1dab2ab75702ca93bd2a64736f6c634300081e0033","linkReferences":{}},"methodIdentifiers":{"approve(address,uint256)":"095ea7b3","balanceOf(address)":"70a08231","getApproved(uint256)":"081812fc","isApprovedForAll(address,address)":"e985e9c5","mintNft(string)":"da86f4a9","name()":"06fdde03","ownerOf(uint256)":"6352211e","safeTransferFrom(address,address,uint256)":"42842e0e","safeTransferFrom(address,address,uint256,bytes)":"b88d4fde","setApprovalForAll(address,bool)":"a22cb465","supportsInterface(bytes4)":"01ffc9a7","symbol()":"95d89b41","tokenURI(uint256)":"c87b56dd","transferFrom(address,address,uint256)":"23b872dd"},"id":15}