{"abi":[{"type":"function","name":"main","inputs":[{"name":"a","type":"uint256","internalType":"uint256"},{"name":"b","type":"uint256","internalType":"uint256"},{"name":"c","type":"uint256","internalType":"uint256"}],"outputs":[{"name":"","type":"uint256[]","internalType":"uint256[]"}],"stateMutability":"pure"}],"bytecode":{"object":"0x6080604052348015600e575f5ffd5b506102118061001c5f395ff3fe608060405234801561000f575f5ffd5b5060043610610029575f3560e01c8063fd20650c1461002d575b5f5ffd5b610047600480360381019061004291906100b4565b61005d565b60405161005491906101bb565b60405180910390f35b606060205f5260036020528360405282606052816080528360a05260a05ff35b5f5ffd5b5f819050919050565b61009381610081565b811461009d575f5ffd5b50565b5f813590506100ae8161008a565b92915050565b5f5f5f606084860312156100cb576100ca61007d565b5b5f6100d8868287016100a0565b93505060206100e9868287016100a0565b92505060406100fa868287016100a0565b9150509250925092565b5f81519050919050565b5f82825260208201905092915050565b5f819050602082019050919050565b61013681610081565b82525050565b5f610147838361012d565b60208301905092915050565b5f602082019050919050565b5f61016982610104565b610173818561010e565b935061017e8361011e565b805f5b838110156101ae578151610195888261013c565b97506101a083610153565b925050600181019050610181565b5085935050505092915050565b5f6020820190508181035f8301526101d3818461015f565b90509291505056fea26469706673582212202c35cb74881c60ac4609510bc11291bcab49c02362e68fbef730adc4da71031164736f6c634300081e0033","linkReferences":{}},"methodIdentifiers":{"main(uint256,uint256,uint256)":"fd20650c"},"id":55}