{"abi":[{"type":"function","name":"main","inputs":[{"name":"arr","type":"uint256[]","internalType":"uint256[]"}],"outputs":[{"name":"","type":"uint256","internalType":"uint256"}],"stateMutability":"pure"}],"bytecode":{"object":"0x6080604052348015600e575f5ffd5b506102e38061001c5f395ff3fe608060405234801561000f575f5ffd5b5060043610610029575f3560e01c80632964e61d1461002d575b5f5ffd5b6100476004803603810190610042919061023e565b61005d565b6040516100549190610294565b60405180910390f35b5f5f82101561006a575f5ffd5b60208201516040830160206001855103028101815b818110156100a157805184811115610095578094505b5060208101905061007f565b50825f5260205ff35b5f604051905090565b5f5ffd5b5f5ffd5b5f5ffd5b5f601f19601f8301169050919050565b7f4e487b71000000000000000000000000000000000000000000000000000000005f52604160045260245ffd5b610105826100bf565b810181811067ffffffffffffffff82111715610124576101236100cf565b5b80604052505050565b5f6101366100aa565b905061014282826100fc565b919050565b5f67ffffffffffffffff821115610161576101606100cf565b5b602082029050602081019050919050565b5f5ffd5b5f819050919050565b61018881610176565b8114610192575f5ffd5b50565b5f813590506101a38161017f565b92915050565b5f6101bb6101b684610147565b61012d565b905080838252602082019050602084028301858111156101de576101dd610172565b5b835b8181101561020757806101f38882610195565b8452602084019350506020810190506101e0565b5050509392505050565b5f82601f830112610225576102246100bb565b5b81356102358482602086016101a9565b91505092915050565b5f60208284031215610253576102526100b3565b5b5f82013567ffffffffffffffff8111156102705761026f6100b7565b5b61027c84828501610211565b91505092915050565b61028e81610176565b82525050565b5f6020820190506102a75f830184610285565b9291505056fea2646970667358221220991486044bf75ceb76606c91328c207bc34b7513f29c1e427977bf46dc7746cf64736f6c634300081e0033","linkReferences":{}},"methodIdentifiers":{"main(uint256[])":"2964e61d"},"id":40}