{"abi":[{"type":"function","name":"main","inputs":[{"name":"x","type":"int256","internalType":"int256"},{"name":"y","type":"int256","internalType":"int256"}],"outputs":[{"name":"","type":"int256","internalType":"int256"}],"stateMutability":"pure"}],"bytecode":{"object":"0x6080604052348015600e575f5ffd5b5061012d8061001c5f395ff3fe6080604052348015600e575f5ffd5b50600436106026575f3560e01c806397d857aa14602a575b5f5ffd5b60406004803603810190603c9190609c565b6054565b604051604b919060e0565b60405180910390f35b5f5f8203605f575f5ffd5b818305805f5260205ff35b5f5ffd5b5f819050919050565b607e81606e565b81146087575f5ffd5b50565b5f813590506096816077565b92915050565b5f5f6040838503121560af5760ae606a565b5b5f60ba85828601608a565b925050602060c985828601608a565b9150509250929050565b60da81606e565b82525050565b5f60208201905060f15f83018460d3565b9291505056fea26469706673582212204dc4d1b62f5553eb5b1a0c56cf14d56c94ddff2fb15abf08e54b39226b20994e64736f6c634300081e0033","linkReferences":{}},"methodIdentifiers":{"main(int256,int256)":"97d857aa"},"id":40}