{"abi":[{"type":"function","name":"main","inputs":[{"name":"deploymentBytecode","type":"bytes","internalType":"bytes"}],"outputs":[{"name":"addr","type":"address","internalType":"address"}],"stateMutability":"nonpayable"}],"bytecode":{"object":"0x6080604052348015600e575f5ffd5b506102918061001c5f395ff3fe608060405234801561000f575f5ffd5b5060043610610029575f3560e01c8063b504e6b11461002d575b5f5ffd5b610047600480360381019061004291906101bc565b61005d565b6040516100549190610242565b60405180910390f35b5f815180602084015ff0915050919050565b5f604051905090565b5f5ffd5b5f5ffd5b5f5ffd5b5f5ffd5b5f601f19601f8301169050919050565b7f4e487b71000000000000000000000000000000000000000000000000000000005f52604160045260245ffd5b6100ce82610088565b810181811067ffffffffffffffff821117156100ed576100ec610098565b5b80604052505050565b5f6100ff61006f565b905061010b82826100c5565b919050565b5f67ffffffffffffffff82111561012a57610129610098565b5b61013382610088565b9050602081019050919050565b828183375f83830152505050565b5f61016061015b84610110565b6100f6565b90508281526020810184848401111561017c5761017b610084565b5b610187848285610140565b509392505050565b5f82601f8301126101a3576101a2610080565b5b81356101b384826020860161014e565b91505092915050565b5f602082840312156101d1576101d0610078565b5b5f82013567ffffffffffffffff8111156101ee576101ed61007c565b5b6101fa8482850161018f565b91505092915050565b5f73ffffffffffffffffffffffffffffffffffffffff82169050919050565b5f61022c82610203565b9050919050565b61023c81610222565b82525050565b5f6020820190506102555f830184610233565b9291505056fea26469706673582212205d3f13bb4855682b237eec0a038af5b03b2d8f6b4e12ad00faa43043e148591e64736f6c634300081e0033","linkReferences":{}},"methodIdentifiers":{"main(bytes)":"b504e6b1"},"id":35}