{"abi":[{"type":"function","name":"main","inputs":[{"name":"a","type":"bool","internalType":"bool"},{"name":"b","type":"bool","internalType":"bool"}],"outputs":[{"name":"","type":"bool","internalType":"bool"},{"name":"","type":"bool","internalType":"bool"}],"stateMutability":"pure"}],"bytecode":{"object":"0x6080604052348015600e575f5ffd5b506101348061001c5f395ff3fe6080604052348015600e575f5ffd5b50600436106026575f3560e01c80633c37d70414602a575b5f5ffd5b60406004803603810190603c91906097565b6055565b604051604c92919060db565b60405180910390f35b5f5f835f528260205260405ff35b5f5ffd5b5f8115159050919050565b6079816067565b81146082575f5ffd5b50565b5f813590506091816072565b92915050565b5f5f6040838503121560aa5760a96063565b5b5f60b5858286016085565b925050602060c4858286016085565b9150509250929050565b60d5816067565b82525050565b5f60408201905060ec5f83018560ce565b60f7602083018460ce565b939250505056fea26469706673582212201f5cb2cd2554eda3ecd9fb63f017bdf4acf038509b7162d76659898cdb0097a864736f6c634300081e0033","linkReferences":{}},"methodIdentifiers":{"main(bool,bool)":"3c37d704"},"id":78}