{"abi":[{"type":"function","name":"balances","inputs":[{"name":"user","type":"address","internalType":"address"},{"name":"token","type":"address","internalType":"address"}],"outputs":[{"name":"value","type":"uint256","internalType":"uint256"}],"stateMutability":"view"},{"type":"function","name":"main","inputs":[{"name":"user","type":"address","internalType":"address"},{"name":"token","type":"address","internalType":"address"},{"name":"value","type":"uint256","internalType":"uint256"}],"outputs":[],"stateMutability":"nonpayable"}],"bytecode":{"object":"0x6080604052348015600e575f5ffd5b506102428061001c5f395ff3fe608060405234801561000f575f5ffd5b5060043610610034575f3560e01c8063adac567414610038578063c23f001f14610054575b5f5ffd5b610052600480360381019061004d9190610156565b610084565b005b61006e600480360381019061006991906101a6565b6100a6565b60405161007b91906101f3565b60405180910390f35b5f835f528060205260405f20835f528060205260405f20838155505050505050565b5f602052815f5260405f20602052805f5260405f205f91509150505481565b5f5ffd5b5f73ffffffffffffffffffffffffffffffffffffffff82169050919050565b5f6100f2826100c9565b9050919050565b610102816100e8565b811461010c575f5ffd5b50565b5f8135905061011d816100f9565b92915050565b5f819050919050565b61013581610123565b811461013f575f5ffd5b50565b5f813590506101508161012c565b92915050565b5f5f5f6060848603121561016d5761016c6100c5565b5b5f61017a8682870161010f565b935050602061018b8682870161010f565b925050604061019c86828701610142565b9150509250925092565b5f5f604083850312156101bc576101bb6100c5565b5b5f6101c98582860161010f565b92505060206101da8582860161010f565b9150509250929050565b6101ed81610123565b82525050565b5f6020820190506102065f8301846101e4565b9291505056fea2646970667358221220e4588fcc9a804f7ffb352fc632ea8852c5dcf2b2b22de3cc13723f7c19ee07ff64736f6c634300081e0033","linkReferences":{}},"methodIdentifiers":{"balances(address,address)":"c23f001f","main(address,address,uint256)":"adac5674"},"id":77}