{"abi":[{"type":"function","name":"balances","inputs":[{"name":"","type":"address","internalType":"address"}],"outputs":[{"name":"","type":"uint256","internalType":"uint256"}],"stateMutability":"view"},{"type":"function","name":"deposit","inputs":[],"outputs":[],"stateMutability":"payable"},{"type":"function","name":"withdraw","inputs":[{"name":"amount","type":"uint256","internalType":"uint256"}],"outputs":[{"name":"bal","type":"uint256","internalType":"uint256"}],"stateMutability":"nonpayable"},{"type":"event","name":"Deposit","inputs":[{"name":"depositor","type":"address","indexed":true,"internalType":"address"},{"name":"amount","type":"uint256","indexed":false,"internalType":"uint256"}],"anonymous":false},{"type":"event","name":"Withdraw","inputs":[{"name":"withdrawer","type":"address","indexed":true,"internalType":"address"},{"name":"amount","type":"uint256","indexed":false,"internalType":"uint256"}],"anonymous":false},{"type":"error","name":"InsufficientBalance","inputs":[]}],"bytecode":{"object":"0x6080604052348015600e575f5ffd5b506102d88061001c5f395ff3fe608060405260043610610033575f3560e01c806327e235e3146100375780632e1a7d4d14610073578063d0e30db0146100af575b5f5ffd5b348015610042575f5ffd5b5061005d600480360381019061005891906101f1565b6100b9565b60405161006a9190610234565b60405180910390f35b34801561007e575f5ffd5b5061009960048036038101906100949190610277565b6100cd565b6040516100a69190610234565b60405180910390f35b6100b7610140565b005b5f602052805f5260405f205f915090505481565b5f5f7f884edad9ce6fa2440d8a54cc123490eb96d2768479d49ff9c7366125a942436490505f63f4d678b860e01b9050604051848152335f525f60205260405f20805483606052478711156101225760046060fd5b5f835f858a335af187820383553386602086a2505050505050919050565b5f7fe1fffcc4923d04b559f4d29a8bfc6cda04eb5b0d3c460751c2402c5c5cc9109c90506040515f815f8334305af15f335f528060205234835260405f20805480340182553386602087a2505050505050565b5f5ffd5b5f73ffffffffffffffffffffffffffffffffffffffff82169050919050565b5f6101c082610197565b9050919050565b6101d0816101b6565b81146101da575f5ffd5b50565b5f813590506101eb816101c7565b92915050565b5f6020828403121561020657610205610193565b5b5f610213848285016101dd565b91505092915050565b5f819050919050565b61022e8161021c565b82525050565b5f6020820190506102475f830184610225565b92915050565b6102568161021c565b8114610260575f5ffd5b50565b5f813590506102718161024d565b92915050565b5f6020828403121561028c5761028b610193565b5b5f61029984828501610263565b9150509291505056fea2646970667358221220f94a619edd2b5ec42767064dac5bb9a7324fd1e5bd3c6f916fcce368ea9c143f64736f6c634300081e0033","linkReferences":{}},"methodIdentifiers":{"balances(address)":"27e235e3","deposit()":"d0e30db0","withdraw(uint256)":"2e1a7d4d"},"id":22}