{"abi":[{"type":"function","name":"main","inputs":[{"name":"v","type":"uint256","internalType":"uint256"}],"outputs":[],"stateMutability":"nonpayable"},{"type":"function","name":"someValue1","inputs":[],"outputs":[{"name":"","type":"uint64","internalType":"uint64"}],"stateMutability":"view"},{"type":"function","name":"someValue2","inputs":[],"outputs":[{"name":"","type":"uint64","internalType":"uint64"}],"stateMutability":"view"},{"type":"function","name":"someValue3","inputs":[],"outputs":[{"name":"","type":"uint64","internalType":"uint64"}],"stateMutability":"view"},{"type":"function","name":"writeHere","inputs":[],"outputs":[{"name":"","type":"uint64","internalType":"uint64"}],"stateMutability":"view"}],"bytecode":{"object":"0x608060405260075f5f6101000a81548167ffffffffffffffff021916908367ffffffffffffffff16021790555060015f60086101000a81548167ffffffffffffffff021916908367ffffffffffffffff16021790555060075f60106101000a81548167ffffffffffffffff021916908367ffffffffffffffff16021790555060075f60186101000a81548167ffffffffffffffff021916908367ffffffffffffffff16021790555034801560b1575f5ffd5b5061023f806100bf5f395ff3fe608060405234801561000f575f5ffd5b5060043610610055575f3560e01c8063056351a21461005957806343c622ff146100775780638cd7dbc514610095578063ab3ae255146100b3578063d7c5157b146100cf575b5f5ffd5b6100616100ed565b60405161006e919061018e565b60405180910390f35b61007f610106565b60405161008c919061018e565b60405180910390f35b61009d61011e565b6040516100aa919061018e565b60405180910390f35b6100cd60048036038101906100c891906101de565b610137565b005b6100d7610153565b6040516100e4919061018e565b60405180910390f35b5f60109054906101000a900467ffffffffffffffff1681565b5f5f9054906101000a900467ffffffffffffffff1681565b5f60189054906101000a900467ffffffffffffffff1681565b5f548019808216915082821791508160401b9150815f55505050565b5f60089054906101000a900467ffffffffffffffff1681565b5f67ffffffffffffffff82169050919050565b6101888161016c565b82525050565b5f6020820190506101a15f83018461017f565b92915050565b5f5ffd5b5f819050919050565b6101bd816101ab565b81146101c7575f5ffd5b50565b5f813590506101d8816101b4565b92915050565b5f602082840312156101f3576101f26101a7565b5b5f610200848285016101ca565b9150509291505056fea264697066735822122025ac962952a66bae8f31982d14999a2af05cfc5a5ae05a3335ccc7b20622a5b964736f6c634300081e0033","linkReferences":{}},"methodIdentifiers":{"main(uint256)":"ab3ae255","someValue1()":"43c622ff","someValue2()":"056351a2","someValue3()":"8cd7dbc5","writeHere()":"d7c5157b"},"id":82}