{"abi":[{"type":"function","name":"main","inputs":[{"name":"emitters","type":"address[]","internalType":"address[]"},{"name":"ids","type":"bytes32[]","internalType":"bytes32[]"},{"name":"nums","type":"uint256[]","internalType":"uint256[]"}],"outputs":[],"stateMutability":"nonpayable"},{"type":"event","name":"MyEvent","inputs":[{"name":"emitter","type":"address","indexed":true,"internalType":"address"},{"name":"id","type":"bytes32","indexed":true,"internalType":"bytes32"},{"name":"num","type":"uint256","indexed":false,"internalType":"uint256"}],"anonymous":false}],"bytecode":{"object":"0x6080604052348015600e575f5ffd5b506105368061001c5f395ff3fe608060405234801561000f575f5ffd5b5060043610610029575f3560e01c806386a61b751461002d575b5f5ffd5b6100476004803603810190610042919061045c565b610049565b005b60405183515f5b818110156100b3576020810260a00151602082026101200151604080510160208402602061018001015180875282847f044d482819499c9d5fde1245ce63873b1259fc52fc78651ccdcdf7392637d37460208aa350505050600181019050610050565b505050505050565b5f604051905090565b5f5ffd5b5f5ffd5b5f5ffd5b5f601f19601f8301169050919050565b7f4e487b71000000000000000000000000000000000000000000000000000000005f52604160045260245ffd5b610116826100d0565b810181811067ffffffffffffffff82111715610135576101346100e0565b5b80604052505050565b5f6101476100bb565b9050610153828261010d565b919050565b5f67ffffffffffffffff821115610172576101716100e0565b5b602082029050602081019050919050565b5f5ffd5b5f73ffffffffffffffffffffffffffffffffffffffff82169050919050565b5f6101b082610187565b9050919050565b6101c0816101a6565b81146101ca575f5ffd5b50565b5f813590506101db816101b7565b92915050565b5f6101f36101ee84610158565b61013e565b9050808382526020820190506020840283018581111561021657610215610183565b5b835b8181101561023f578061022b88826101cd565b845260208401935050602081019050610218565b5050509392505050565b5f82601f83011261025d5761025c6100cc565b5b813561026d8482602086016101e1565b91505092915050565b5f67ffffffffffffffff8211156102905761028f6100e0565b5b602082029050602081019050919050565b5f819050919050565b6102b3816102a1565b81146102bd575f5ffd5b50565b5f813590506102ce816102aa565b92915050565b5f6102e66102e184610276565b61013e565b9050808382526020820190506020840283018581111561030957610308610183565b5b835b81811015610332578061031e88826102c0565b84526020840193505060208101905061030b565b5050509392505050565b5f82601f8301126103505761034f6100cc565b5b81356103608482602086016102d4565b91505092915050565b5f67ffffffffffffffff821115610383576103826100e0565b5b602082029050602081019050919050565b5f819050919050565b6103a681610394565b81146103b0575f5ffd5b50565b5f813590506103c18161039d565b92915050565b5f6103d96103d484610369565b61013e565b905080838252602082019050602084028301858111156103fc576103fb610183565b5b835b81811015610425578061041188826103b3565b8452602084019350506020810190506103fe565b5050509392505050565b5f82601f830112610443576104426100cc565b5b81356104538482602086016103c7565b91505092915050565b5f5f5f60608486031215610473576104726100c4565b5b5f84013567ffffffffffffffff8111156104905761048f6100c8565b5b61049c86828701610249565b935050602084013567ffffffffffffffff8111156104bd576104bc6100c8565b5b6104c98682870161033c565b925050604084013567ffffffffffffffff8111156104ea576104e96100c8565b5b6104f68682870161042f565b915050925092509256fea26469706673582212202ed18868b246174ec0c5420566d1ac54d065b5bed2ae1f4a52dc8a5afb10c55c64736f6c634300081e0033","linkReferences":{}},"methodIdentifiers":{"main(address[],bytes32[],uint256[])":"86a61b75"},"id":23}