{"abi":[{"type":"function","name":"main","inputs":[{"name":"index","type":"int256","internalType":"int256"}],"outputs":[{"name":"","type":"uint256","internalType":"uint256"}],"stateMutability":"view"},{"type":"function","name":"setValue","inputs":[{"name":"x","type":"uint256[]","internalType":"uint256[]"}],"outputs":[],"stateMutability":"nonpayable"}],"bytecode":{"object":"0x6080604052348015600e575f5ffd5b506102b28061001c5f395ff3fe608060405234801561000f575f5ffd5b5060043610610034575f3560e01c806336589b1714610038578063384622f614610054575b5f5ffd5b610052600480360381019061004d91906101a2565b610084565b005b61006e60048036038101906100699190610220565b610099565b60405161007b9190610263565b60405180910390f35b81815f91906100949291906100d3565b505050565b5f5f6001815403808411156100ba57634e487b715f5260326020526024601cfd5b5f5f5260205f20848101805f525f518054805f5260205ff35b828054828255905f5260205f2090810192821561010d579160200282015b8281111561010c5782358255916020019190600101906100f1565b5b50905061011a919061011e565b5090565b5b80821115610135575f815f90555060010161011f565b5090565b5f5ffd5b5f5ffd5b5f5ffd5b5f5ffd5b5f5ffd5b5f5f83601f84011261016257610161610141565b5b8235905067ffffffffffffffff81111561017f5761017e610145565b5b60208301915083602082028301111561019b5761019a610149565b5b9250929050565b5f5f602083850312156101b8576101b7610139565b5b5f83013567ffffffffffffffff8111156101d5576101d461013d565b5b6101e18582860161014d565b92509250509250929050565b5f819050919050565b6101ff816101ed565b8114610209575f5ffd5b50565b5f8135905061021a816101f6565b92915050565b5f6020828403121561023557610234610139565b5b5f6102428482850161020c565b91505092915050565b5f819050919050565b61025d8161024b565b82525050565b5f6020820190506102765f830184610254565b9291505056fea2646970667358221220a89ea16500737586d1c4d32d9909d89f3aa666defbb0ecc41cb14c13ec583e7564736f6c634300081e0033","linkReferences":{}},"methodIdentifiers":{"main(int256)":"384622f6","setValue(uint256[])":"36589b17"},"id":47}