{"abi":[{"type":"fallback","stateMutability":"nonpayable"},{"type":"function","name":"result","inputs":[],"outputs":[{"name":"","type":"uint256","internalType":"uint256"}],"stateMutability":"view"}],"bytecode":{"object":"0x6080604052348015600e575f5ffd5b5061011b8061001c5f395ff3fe6080604052348015600e575f5ffd5b50600436106029575f3560e01c80636537214714609957602a565b5b5f3560e01c63771602f78103604957600435602435808201805f555050505b63b67d77c58103606357600435602435808203805f555050505b63c8a4ac9c8103607d57600435602435808202805f555050505b63a391c15b8103609757600435602435808204805f555050505b005b609f60b3565b60405160aa919060ce565b60405180910390f35b5f5481565b5f819050919050565b60c88160b8565b82525050565b5f60208201905060df5f83018460c1565b9291505056fea2646970667358221220c83dc70b38ed0f18dffda12a3a19ebe9d9e8d1adea1b2d38e1320ecb47c0a49e64736f6c634300081e0033","linkReferences":{}},"methodIdentifiers":{"result()":"65372147"},"id":33}