{"abi":[{"type":"function","name":"main","inputs":[{"name":"x","type":"uint256[]","internalType":"uint256[]"},{"name":"y","type":"uint256[]","internalType":"uint256[]"}],"outputs":[],"stateMutability":"nonpayable"},{"type":"function","name":"writeHere1","inputs":[{"name":"","type":"uint256","internalType":"uint256"}],"outputs":[{"name":"","type":"uint256","internalType":"uint256"}],"stateMutability":"view"},{"type":"function","name":"writeHere2","inputs":[{"name":"","type":"uint256","internalType":"uint256"}],"outputs":[{"name":"","type":"uint256","internalType":"uint256"}],"stateMutability":"view"}],"bytecode":{"object":"0x6080604052348015600e575f5ffd5b506103218061001c5f395ff3fe608060405234801561000f575f5ffd5b506004361061003f575f3560e01c80633f7df85e146100435780636ab60f601461005f5780637f9b65241461008f575b5f5ffd5b61005d600480360381019061005891906101e7565b6100bf565b005b61007960048036038101906100749190610298565b61013f565b60405161008691906102d2565b60405180910390f35b6100a960048036038101906100a49190610298565b61015e565b6040516100b691906102d2565b60405180910390f35b8281815f55806001555f5f5260205f2060015f5260205f2060043560208101600401602435602081016004015f5b8881101561010d57602081028401358082890155506001810190506100ed565b505f5b878110156101305760208102820135808288015550600181019050610110565b50505050505050505050505050565b5f818154811061014d575f80fd5b905f5260205f20015f915090505481565b6001818154811061016d575f80fd5b905f5260205f20015f915090505481565b5f5ffd5b5f5ffd5b5f5ffd5b5f5ffd5b5f5ffd5b5f5f83601f8401126101a7576101a6610186565b5b8235905067ffffffffffffffff8111156101c4576101c361018a565b5b6020830191508360208202830111156101e0576101df61018e565b5b9250929050565b5f5f5f5f604085870312156101ff576101fe61017e565b5b5f85013567ffffffffffffffff81111561021c5761021b610182565b5b61022887828801610192565b9450945050602085013567ffffffffffffffff81111561024b5761024a610182565b5b61025787828801610192565b925092505092959194509250565b5f819050919050565b61027781610265565b8114610281575f5ffd5b50565b5f813590506102928161026e565b92915050565b5f602082840312156102ad576102ac61017e565b5b5f6102ba84828501610284565b91505092915050565b6102cc81610265565b82525050565b5f6020820190506102e55f8301846102c3565b9291505056fea2646970667358221220ae93650235c62e546e8f63a0d7d431f691d00abb95b958d45f42609f7911877464736f6c634300081e0033","linkReferences":{}},"methodIdentifiers":{"main(uint256[],uint256[])":"3f7df85e","writeHere1(uint256)":"6ab60f60","writeHere2(uint256)":"7f9b6524"},"id":102}