{"abi":[{"type":"function","name":"main","inputs":[{"name":"x","type":"uint256","internalType":"uint256"}],"outputs":[{"name":"","type":"uint256","internalType":"uint256"}],"stateMutability":"pure"}],"bytecode":{"object":"0x6080604052348015600e575f5ffd5b506101bd8061001c5f395ff3fe608060405234801561000f575f5ffd5b5060043610610029575f3560e01c8063ab3ae2551461002d575b5f5ffd5b61004760048036038101906100429190610134565b61005d565b604051610054919061016e565b60405180910390f35b5f5f8203610069575f5ffd5b5f6fffffffffffffffffffffffffffffffff831160071b905067ffffffffffffffff83821c1160061b8117905063ffffffff83821c1160051b8117905061ffff83821c1160041b8117905060ff83821c1160031b81179050600f83821c1160021b811790507d01010202020203030303030303030000000000000000000000000000000083821c1a81179050805f5260205ff35b5f5ffd5b5f819050919050565b61011381610101565b811461011d575f5ffd5b50565b5f8135905061012e8161010a565b92915050565b5f60208284031215610149576101486100fd565b5b5f61015684828501610120565b91505092915050565b61016881610101565b82525050565b5f6020820190506101815f83018461015f565b9291505056fea264697066735822122075a485af3a43c10b31654bdb321522baec718256cbbecb90c76b1f83f1db114f64736f6c634300081e0033","linkReferences":{}},"methodIdentifiers":{"main(uint256)":"ab3ae255"},"id":19}