{"abi":[{"type":"constructor","inputs":[{"name":"sadSvg","type":"string","internalType":"string"},{"name":"happySvg","type":"string","internalType":"string"}],"stateMutability":"nonpayable"},{"type":"function","name":"approve","inputs":[{"name":"to","type":"address","internalType":"address"},{"name":"tokenId","type":"uint256","internalType":"uint256"}],"outputs":[],"stateMutability":"nonpayable"},{"type":"function","name":"balanceOf","inputs":[{"name":"owner","type":"address","internalType":"address"}],"outputs":[{"name":"","type":"uint256","internalType":"uint256"}],"stateMutability":"view"},{"type":"function","name":"flipMood","inputs":[{"name":"tokenId","type":"uint256","internalType":"uint256"}],"outputs":[],"stateMutability":"nonpayable"},{"type":"function","name":"getApproved","inputs":[{"name":"tokenId","type":"uint256","internalType":"uint256"}],"outputs":[{"name":"","type":"address","internalType":"address"}],"stateMutability":"view"},{"type":"function","name":"isApprovedForAll","inputs":[{"name":"owner","type":"address","internalType":"address"},{"name":"operator","type":"address","internalType":"address"}],"outputs":[{"name":"","type":"bool","internalType":"bool"}],"stateMutability":"view"},{"type":"function","name":"mintNft","inputs":[],"outputs":[],"stateMutability":"nonpayable"},{"type":"function","name":"name","inputs":[],"outputs":[{"name":"","type":"string","internalType":"string"}],"stateMutability":"view"},{"type":"function","name":"ownerOf","inputs":[{"name":"tokenId","type":"uint256","internalType":"uint256"}],"outputs":[{"name":"","type":"address","internalType":"address"}],"stateMutability":"view"},{"type":"function","name":"safeTransferFrom","inputs":[{"name":"from","type":"address","internalType":"address"},{"name":"to","type":"address","internalType":"address"},{"name":"tokenId","type":"uint256","internalType":"uint256"}],"outputs":[],"stateMutability":"nonpayable"},{"type":"function","name":"safeTransferFrom","inputs":[{"name":"from","type":"address","internalType":"address"},{"name":"to","type":"address","internalType":"address"},{"name":"tokenId","type":"uint256","internalType":"uint256"},{"name":"data","type":"bytes","internalType":"bytes"}],"outputs":[],"stateMutability":"nonpayable"},{"type":"function","name":"setApprovalForAll","inputs":[{"name":"operator","type":"address","internalType":"address"},{"name":"approved","type":"bool","internalType":"bool"}],"outputs":[],"stateMutability":"nonpayable"},{"type":"function","name":"supportsInterface","inputs":[{"name":"interfaceId","type":"bytes4","internalType":"bytes4"}],"outputs":[{"name":"","type":"bool","internalType":"bool"}],"stateMutability":"view"},{"type":"function","name":"symbol","inputs":[],"outputs":[{"name":"","type":"string","internalType":"string"}],"stateMutability":"view"},{"type":"function","name":"tokenURI","inputs":[{"name":"tokenId","type":"uint256","internalType":"uint256"}],"outputs":[{"name":"","type":"string","internalType":"string"}],"stateMutability":"view"},{"type":"function","name":"transferFrom","inputs":[{"name":"from","type":"address","internalType":"address"},{"name":"to","type":"address","internalType":"address"},{"name":"tokenId","type":"uint256","internalType":"uint256"}],"outputs":[],"stateMutability":"nonpayable"},{"type":"event","name":"Approval","inputs":[{"name":"owner","type":"address","indexed":true,"internalType":"address"},{"name":"approved","type":"address","indexed":true,"internalType":"address"},{"name":"tokenId","type":"uint256","indexed":true,"internalType":"uint256"}],"anonymous":false},{"type":"event","name":"ApprovalForAll","inputs":[{"name":"owner","type":"address","indexed":true,"internalType":"address"},{"name":"operator","type":"address","indexed":true,"internalType":"address"},{"name":"approved","type":"bool","indexed":false,"internalType":"bool"}],"anonymous":false},{"type":"event","name":"Transfer","inputs":[{"name":"from","type":"address","indexed":true,"internalType":"address"},{"name":"to","type":"address","indexed":true,"internalType":"address"},{"name":"tokenId","type":"uint256","indexed":true,"internalType":"uint256"}],"anonymous":false},{"type":"error","name":"ERC721IncorrectOwner","inputs":[{"name":"sender","type":"address","internalType":"address"},{"name":"tokenId","type":"uint256","internalType":"uint256"},{"name":"owner","type":"address","internalType":"address"}]},{"type":"error","name":"ERC721InsufficientApproval","inputs":[{"name":"operator","type":"address","internalType":"address"},{"name":"tokenId","type":"uint256","internalType":"uint256"}]},{"type":"error","name":"ERC721InvalidApprover","inputs":[{"name":"approver","type":"address","internalType":"address"}]},{"type":"error","name":"ERC721InvalidOperator","inputs":[{"name":"operator","type":"address","internalType":"address"}]},{"type":"error","name":"ERC721InvalidOwner","inputs":[{"name":"owner","type":"address","internalType":"address"}]},{"type":"error","name":"ERC721InvalidReceiver","inputs":[{"name":"receiver","type":"address","internalType":"address"}]},{"type":"error","name":"ERC721InvalidSender","inputs":[{"name":"sender","type":"address","internalType":"address"}]},{"type":"error","name":"ERC721NonexistentToken","inputs":[{"name":"tokenId","type":"uint256","internalType":"uint256"}]},{"type":"error","name":"MoodNft__CantFlipMoodIfNotOwner","inputs":[]}],"bytecode":{"object":"0x608060405234801561000f575f5ffd5b5060405161290638038061290683398181016040528101906100319190610239565b6040518060400160405280600781526020017f4d6f6f644e6674000000000000000000000000000000000000000000000000008152506040518060400160405280600281526020017f4d4e000000000000000000000000000000000000000000000000000000000000815250815f90816100ab91906104bf565b5080600190816100bb91906104bf565b5050505f60068190555081600790816100d491906104bf565b5080600890816100e491906104bf565b50505061058e565b5f604051905090565b5f5ffd5b5f5ffd5b5f5ffd5b5f5ffd5b5f601f19601f8301169050919050565b7f4e487b71000000000000000000000000000000000000000000000000000000005f52604160045260245ffd5b61014b82610105565b810181811067ffffffffffffffff8211171561016a57610169610115565b5b80604052505050565b5f61017c6100ec565b90506101888282610142565b919050565b5f67ffffffffffffffff8211156101a7576101a6610115565b5b6101b082610105565b9050602081019050919050565b8281835e5f83830152505050565b5f6101dd6101d88461018d565b610173565b9050828152602081018484840111156101f9576101f8610101565b5b6102048482856101bd565b509392505050565b5f82601f8301126102205761021f6100fd565b5b81516102308482602086016101cb565b91505092915050565b5f5f6040838503121561024f5761024e6100f5565b5b5f83015167ffffffffffffffff81111561026c5761026b6100f9565b5b6102788582860161020c565b925050602083015167ffffffffffffffff811115610299576102986100f9565b5b6102a58582860161020c565b9150509250929050565b5f81519050919050565b7f4e487b71000000000000000000000000000000000000000000000000000000005f52602260045260245ffd5b5f60028204905060018216806102fd57607f821691505b6020821081036103105761030f6102b9565b5b50919050565b5f819050815f5260205f209050919050565b5f6020601f8301049050919050565b5f82821b905092915050565b5f600883026103727fffffffffffffffffffffffffffffffffffffffffffffffffffffffffffffffff82610337565b61037c8683610337565b95508019841693508086168417925050509392505050565b5f819050919050565b5f819050919050565b5f6103c06103bb6103b684610394565b61039d565b610394565b9050919050565b5f819050919050565b6103d9836103a6565b6103ed6103e5826103c7565b848454610343565b825550505050565b5f5f905090565b6104046103f5565b61040f8184846103d0565b505050565b5b81811015610432576104275f826103fc565b600181019050610415565b5050565b601f8211156104775761044881610316565b61045184610328565b81016020851015610460578190505b61047461046c85610328565b830182610414565b50505b505050565b5f82821c905092915050565b5f6104975f198460080261047c565b1980831691505092915050565b5f6104af8383610488565b9150826002028217905092915050565b6104c8826102af565b67ffffffffffffffff8111156104e1576104e0610115565b5b6104eb82546102e6565b6104f6828285610436565b5f60209050601f831160018114610527575f8415610515578287015190505b61051f85826104a4565b865550610586565b601f19841661053586610316565b5f5b8281101561055c57848901518255600182019150602085019450602081019050610537565b868310156105795784890151610575601f891682610488565b8355505b6001600288020188555050505b505050505050565b61236b8061059b5f395ff3fe608060405234801561000f575f5ffd5b50600436106100f3575f3560e01c806370a0823111610095578063c1a147a011610064578063c1a147a01461027f578063c2229fea1461029b578063c87b56dd146102a5578063e985e9c5146102d5576100f3565b806370a08231146101f957806395d89b4114610229578063a22cb46514610247578063b88d4fde14610263576100f3565b8063095ea7b3116100d1578063095ea7b31461017557806323b872dd1461019157806342842e0e146101ad5780636352211e146101c9576100f3565b806301ffc9a7146100f757806306fdde0314610127578063081812fc14610145575b5f5ffd5b610111600480360381019061010c91906118a8565b610305565b60405161011e91906118ed565b60405180910390f35b61012f6103e6565b60405161013c9190611976565b60405180910390f35b61015f600480360381019061015a91906119c9565b610475565b60405161016c9190611a33565b60405180910390f35b61018f600480360381019061018a9190611a76565b610490565b005b6101ab60048036038101906101a69190611ab4565b6104a6565b005b6101c760048036038101906101c29190611ab4565b6105a5565b005b6101e360048036038101906101de91906119c9565b6105c4565b6040516101f09190611a33565b60405180910390f35b610213600480360381019061020e9190611b04565b6105d5565b6040516102209190611b3e565b60405180910390f35b61023161068b565b60405161023e9190611976565b60405180910390f35b610261600480360381019061025c9190611b81565b61071b565b005b61027d60048036038101906102789190611ceb565b610731565b005b610299600480360381019061029491906119c9565b610756565b005b6102a3610885565b005b6102bf60048036038101906102ba91906119c9565b6108e4565b6040516102cc9190611976565b60405180910390f35b6102ef60048036038101906102ea9190611d6b565b610aac565b6040516102fc91906118ed565b60405180910390f35b5f7f80ac58cd000000000000000000000000000000000000000000000000000000007bffffffffffffffffffffffffffffffffffffffffffffffffffffffff1916827bffffffffffffffffffffffffffffffffffffffffffffffffffffffff191614806103cf57507f5b5e139f000000000000000000000000000000000000000000000000000000007bffffffffffffffffffffffffffffffffffffffffffffffffffffffff1916827bffffffffffffffffffffffffffffffffffffffffffffffffffffffff1916145b806103df57506103de82610b3a565b5b9050919050565b60605f80546103f490611dd6565b80601f016020809104026020016040519081016040528092919081815260200182805461042090611dd6565b801561046b5780601f106104425761010080835404028352916020019161046b565b820191905f5260205f20905b81548152906001019060200180831161044e57829003601f168201915b5050505050905090565b5f61047f82610ba3565b5061048982610c29565b9050919050565b6104a2828261049d610c62565b610c69565b5050565b5f73ffffffffffffffffffffffffffffffffffffffff168273ffffffffffffffffffffffffffffffffffffffff1603610516575f6040517f64a0ae9200000000000000000000000000000000000000000000000000000000815260040161050d9190611a33565b60405180910390fd5b5f6105298383610524610c62565b610c7b565b90508373ffffffffffffffffffffffffffffffffffffffff168173ffffffffffffffffffffffffffffffffffffffff161461059f578382826040517f64283d7b00000000000000000000000000000000000000000000000000000000815260040161059693929190611e06565b60405180910390fd5b50505050565b6105bf83838360405180602001604052805f815250610731565b505050565b5f6105ce82610ba3565b9050919050565b5f5f73ffffffffffffffffffffffffffffffffffffffff168273ffffffffffffffffffffffffffffffffffffffff1603610646575f6040517f89c62b6400000000000000000000000000000000000000000000000000000000815260040161063d9190611a33565b60405180910390fd5b60035f8373ffffffffffffffffffffffffffffffffffffffff1673ffffffffffffffffffffffffffffffffffffffff1681526020019081526020015f20549050919050565b60606001805461069a90611dd6565b80601f01602080910402602001604051908101604052809291908181526020018280546106c690611dd6565b80156107115780601f106106e857610100808354040283529160200191610711565b820191905f5260205f20905b8154815290600101906020018083116106f457829003601f168201915b5050505050905090565b61072d610726610c62565b8383610e86565b5050565b61073c8484846104a6565b610750610747610c62565b85858585610fef565b50505050565b3373ffffffffffffffffffffffffffffffffffffffff16610776826105c4565b73ffffffffffffffffffffffffffffffffffffffff16146107c3576040517f85046ca700000000000000000000000000000000000000000000000000000000815260040160405180910390fd5b5f60018111156107d6576107d5611e3b565b5b60095f8381526020019081526020015f205f9054906101000a900460ff16600181111561080657610805611e3b565b5b0361084957600160095f8381526020019081526020015f205f6101000a81548160ff0219169083600181111561083f5761083e611e3b565b5b0217905550610882565b5f60095f8381526020019081526020015f205f6101000a81548160ff0219169083600181111561087c5761087b611e3b565b5b02179055505b50565b6108913360065461119b565b5f60095f60065481526020019081526020015f205f6101000a81548160ff021916908360018111156108c6576108c5611e3b565b5b021790555060065f8154809291906108dd90611e95565b9190505550565b6060805f60018111156108fa576108f9611e3b565b5b60095f8581526020019081526020015f205f9054906101000a900460ff16600181111561092a57610929611e3b565b5b036109bf576008805461093c90611dd6565b80601f016020809104026020016040519081016040528092919081815260200182805461096890611dd6565b80156109b35780601f1061098a576101008083540402835291602001916109b3565b820191905f5260205f20905b81548152906001019060200180831161099657829003601f168201915b50505050509050610a4b565b600780546109cc90611dd6565b80601f01602080910402602001604051908101604052809291908181526020018280546109f890611dd6565b8015610a435780601f10610a1a57610100808354040283529160200191610a43565b820191905f5260205f20905b815481529060010190602001808311610a2657829003601f168201915b505050505090505b610a536111b8565b610a84610a5e6103e6565b83604051602001610a709291906120b0565b6040516020818303038152906040526111f5565b604051602001610a959291906120ff565b604051602081830303815290604052915050919050565b5f60055f8473ffffffffffffffffffffffffffffffffffffffff1673ffffffffffffffffffffffffffffffffffffffff1681526020019081526020015f205f8373ffffffffffffffffffffffffffffffffffffffff1673ffffffffffffffffffffffffffffffffffffffff1681526020019081526020015f205f9054906101000a900460ff16905092915050565b5f7f01ffc9a7000000000000000000000000000000000000000000000000000000007bffffffffffffffffffffffffffffffffffffffffffffffffffffffff1916827bffffffffffffffffffffffffffffffffffffffffffffffffffffffff1916149050919050565b5f5f610bae83611222565b90505f73ffffffffffffffffffffffffffffffffffffffff168173ffffffffffffffffffffffffffffffffffffffff1603610c2057826040517f7e273289000000000000000000000000000000000000000000000000000000008152600401610c179190611b3e565b60405180910390fd5b80915050919050565b5f60045f8381526020019081526020015f205f9054906101000a900473ffffffffffffffffffffffffffffffffffffffff169050919050565b5f33905090565b610c76838383600161125b565b505050565b5f5f610c8684611222565b90505f73ffffffffffffffffffffffffffffffffffffffff168373ffffffffffffffffffffffffffffffffffffffff1614610cc757610cc681848661141a565b5b5f73ffffffffffffffffffffffffffffffffffffffff168173ffffffffffffffffffffffffffffffffffffffff1614610d5257610d065f855f5f61125b565b600160035f8373ffffffffffffffffffffffffffffffffffffffff1673ffffffffffffffffffffffffffffffffffffffff1681526020019081526020015f205f82825403925050819055505b5f73ffffffffffffffffffffffffffffffffffffffff168573ffffffffffffffffffffffffffffffffffffffff1614610dd157600160035f8773ffffffffffffffffffffffffffffffffffffffff1673ffffffffffffffffffffffffffffffffffffffff1681526020019081526020015f205f82825401925050819055505b8460025f8681526020019081526020015f205f6101000a81548173ffffffffffffffffffffffffffffffffffffffff021916908373ffffffffffffffffffffffffffffffffffffffff160217905550838573ffffffffffffffffffffffffffffffffffffffff168273ffffffffffffffffffffffffffffffffffffffff167fddf252ad1be2c89b69c2b068fc378daa952ba7f163c4a11628f55a4df523b3ef60405160405180910390a4809150509392505050565b5f73ffffffffffffffffffffffffffffffffffffffff168273ffffffffffffffffffffffffffffffffffffffff1603610ef657816040517f5b08ba18000000000000000000000000000000000000000000000000000000008152600401610eed9190611a33565b60405180910390fd5b8060055f8573ffffffffffffffffffffffffffffffffffffffff1673ffffffffffffffffffffffffffffffffffffffff1681526020019081526020015f205f8473ffffffffffffffffffffffffffffffffffffffff1673ffffffffffffffffffffffffffffffffffffffff1681526020019081526020015f205f6101000a81548160ff0219169083151502179055508173ffffffffffffffffffffffffffffffffffffffff168373ffffffffffffffffffffffffffffffffffffffff167f17307eab39ab6107e8899845ad3d59bd9653f200f220920489ca2b5937696c3183604051610fe291906118ed565b60405180910390a3505050565b5f8373ffffffffffffffffffffffffffffffffffffffff163b1115611194578273ffffffffffffffffffffffffffffffffffffffff1663150b7a02868685856040518563ffffffff1660e01b815260040161104d9493929190612174565b6020604051808303815f875af192505050801561108857506040513d601f19601f8201168201806040525081019061108591906121d2565b60015b611109573d805f81146110b6576040519150601f19603f3d011682016040523d82523d5f602084013e6110bb565b606091505b505f81510361110157836040517f64a0ae920000000000000000000000000000000000000000000000000000000081526004016110f89190611a33565b60405180910390fd5b805160208201fd5b63150b7a0260e01b7bffffffffffffffffffffffffffffffffffffffffffffffffffffffff1916817bffffffffffffffffffffffffffffffffffffffffffffffffffffffff19161461119257836040517f64a0ae920000000000000000000000000000000000000000000000000000000081526004016111899190611a33565b60405180910390fd5b505b5050505050565b6111b4828260405180602001604052805f8152506114dd565b5050565b60606040518060400160405280601d81526020017f646174613a6170706c69636174696f6e2f6a736f6e3b6261736536342c000000815250905090565b606061121b826040518060600160405280604081526020016122f6604091396001611500565b9050919050565b5f60025f8381526020019081526020015f205f9054906101000a900473ffffffffffffffffffffffffffffffffffffffff169050919050565b808061129357505f73ffffffffffffffffffffffffffffffffffffffff168273ffffffffffffffffffffffffffffffffffffffff1614155b156113c5575f6112a284610ba3565b90505f73ffffffffffffffffffffffffffffffffffffffff168373ffffffffffffffffffffffffffffffffffffffff161415801561130c57508273ffffffffffffffffffffffffffffffffffffffff168173ffffffffffffffffffffffffffffffffffffffff1614155b801561131f575061131d8184610aac565b155b1561136157826040517fa9fbf51f0000000000000000000000000000000000000000000000000000000081526004016113589190611a33565b60405180910390fd5b81156113c357838573ffffffffffffffffffffffffffffffffffffffff168273ffffffffffffffffffffffffffffffffffffffff167f8c5be1e5ebec7d5bd14f71427d1e84f3dd0314c0f7b2291e5b200ac8c7c3b92560405160405180910390a45b505b8360045f8581526020019081526020015f205f6101000a81548173ffffffffffffffffffffffffffffffffffffffff021916908373ffffffffffffffffffffffffffffffffffffffff16021790555050505050565b61142583838361168f565b6114d8575f73ffffffffffffffffffffffffffffffffffffffff168373ffffffffffffffffffffffffffffffffffffffff160361149957806040517f7e2732890000000000000000000000000000000000000000000000000000000081526004016114909190611b3e565b60405180910390fd5b81816040517f177e802f0000000000000000000000000000000000000000000000000000000081526004016114cf9291906121fd565b60405180910390fd5b505050565b6114e7838361174f565b6114fb6114f2610c62565b5f858585610fef565b505050565b60605f8451036115205760405180602001604052805f8152509050611688565b5f826115515760036002865160046115389190612224565b6115429190612265565b61154c91906122c5565b611578565b6003600286516115619190612265565b61156b91906122c5565b60046115779190612224565b5b90505f8167ffffffffffffffff81111561159557611594611bc7565b5b6040519080825280601f01601f1916602001820160405280156115c75781602001600182028036833780820191505090505b509050600185016020820187885189016020810180515f82525b8284101561163c576003840193508351603f8160121c168701518653600186019550603f81600c1c168701518653600186019550603f8160061c168701518653600186019550603f81168701518653600186019550506115e1565b808252891561167c5760038c51066001811461165f57600281146116725761167a565b603d6001870353603d600287035361167a565b603d60018703535b505b50505050505080925050505b9392505050565b5f5f73ffffffffffffffffffffffffffffffffffffffff168373ffffffffffffffffffffffffffffffffffffffff161415801561174657508273ffffffffffffffffffffffffffffffffffffffff168473ffffffffffffffffffffffffffffffffffffffff16148061170757506117068484610aac565b5b8061174557508273ffffffffffffffffffffffffffffffffffffffff1661172d83610c29565b73ffffffffffffffffffffffffffffffffffffffff16145b5b90509392505050565b5f73ffffffffffffffffffffffffffffffffffffffff168273ffffffffffffffffffffffffffffffffffffffff16036117bf575f6040517f64a0ae920000000000000000000000000000000000000000000000000000000081526004016117b69190611a33565b60405180910390fd5b5f6117cb83835f610c7b565b90505f73ffffffffffffffffffffffffffffffffffffffff168173ffffffffffffffffffffffffffffffffffffffff161461183d575f6040517f73c6ac6e0000000000000000000000000000000000000000000000000000000081526004016118349190611a33565b60405180910390fd5b505050565b5f604051905090565b5f5ffd5b5f5ffd5b5f7fffffffff0000000000000000000000000000000000000000000000000000000082169050919050565b61188781611853565b8114611891575f5ffd5b50565b5f813590506118a28161187e565b92915050565b5f602082840312156118bd576118bc61184b565b5b5f6118ca84828501611894565b91505092915050565b5f8115159050919050565b6118e7816118d3565b82525050565b5f6020820190506119005f8301846118de565b92915050565b5f81519050919050565b5f82825260208201905092915050565b8281835e5f83830152505050565b5f601f19601f8301169050919050565b5f61194882611906565b6119528185611910565b9350611962818560208601611920565b61196b8161192e565b840191505092915050565b5f6020820190508181035f83015261198e818461193e565b905092915050565b5f819050919050565b6119a881611996565b81146119b2575f5ffd5b50565b5f813590506119c38161199f565b92915050565b5f602082840312156119de576119dd61184b565b5b5f6119eb848285016119b5565b91505092915050565b5f73ffffffffffffffffffffffffffffffffffffffff82169050919050565b5f611a1d826119f4565b9050919050565b611a2d81611a13565b82525050565b5f602082019050611a465f830184611a24565b92915050565b611a5581611a13565b8114611a5f575f5ffd5b50565b5f81359050611a7081611a4c565b92915050565b5f5f60408385031215611a8c57611a8b61184b565b5b5f611a9985828601611a62565b9250506020611aaa858286016119b5565b9150509250929050565b5f5f5f60608486031215611acb57611aca61184b565b5b5f611ad886828701611a62565b9350506020611ae986828701611a62565b9250506040611afa868287016119b5565b9150509250925092565b5f60208284031215611b1957611b1861184b565b5b5f611b2684828501611a62565b91505092915050565b611b3881611996565b82525050565b5f602082019050611b515f830184611b2f565b92915050565b611b60816118d3565b8114611b6a575f5ffd5b50565b5f81359050611b7b81611b57565b92915050565b5f5f60408385031215611b9757611b9661184b565b5b5f611ba485828601611a62565b9250506020611bb585828601611b6d565b9150509250929050565b5f5ffd5b5f5ffd5b7f4e487b71000000000000000000000000000000000000000000000000000000005f52604160045260245ffd5b611bfd8261192e565b810181811067ffffffffffffffff82111715611c1c57611c1b611bc7565b5b80604052505050565b5f611c2e611842565b9050611c3a8282611bf4565b919050565b5f67ffffffffffffffff821115611c5957611c58611bc7565b5b611c628261192e565b9050602081019050919050565b828183375f83830152505050565b5f611c8f611c8a84611c3f565b611c25565b905082815260208101848484011115611cab57611caa611bc3565b5b611cb6848285611c6f565b509392505050565b5f82601f830112611cd257611cd1611bbf565b5b8135611ce2848260208601611c7d565b91505092915050565b5f5f5f5f60808587031215611d0357611d0261184b565b5b5f611d1087828801611a62565b9450506020611d2187828801611a62565b9350506040611d32878288016119b5565b925050606085013567ffffffffffffffff811115611d5357611d5261184f565b5b611d5f87828801611cbe565b91505092959194509250565b5f5f60408385031215611d8157611d8061184b565b5b5f611d8e85828601611a62565b9250506020611d9f85828601611a62565b9150509250929050565b7f4e487b71000000000000000000000000000000000000000000000000000000005f52602260045260245ffd5b5f6002820490506001821680611ded57607f821691505b602082108103611e0057611dff611da9565b5b50919050565b5f606082019050611e195f830186611a24565b611e266020830185611b2f565b611e336040830184611a24565b949350505050565b7f4e487b71000000000000000000000000000000000000000000000000000000005f52602160045260245ffd5b7f4e487b71000000000000000000000000000000000000000000000000000000005f52601160045260245ffd5b5f611e9f82611996565b91507fffffffffffffffffffffffffffffffffffffffffffffffffffffffffffffffff8203611ed157611ed0611e68565b5b600182019050919050565b5f81905092915050565b7f7b226e616d65223a2022000000000000000000000000000000000000000000005f82015250565b5f611f1a600a83611edc565b9150611f2582611ee6565b600a82019050919050565b5f611f3a82611906565b611f448185611edc565b9350611f54818560208601611920565b80840191505092915050565b7f222c20226465736372697074696f6e223a2022416e204e4654207468617420725f8201527f65666c6563747320746865206f776e657273206d6f6f642e222c20226174747260208201527f696275746573223a200000000000000000000000000000000000000000000000604082015250565b5f611fe0604983611edc565b9150611feb82611f60565b604982019050919050565b7f5b7b2274726169745f74797065223a20226d6f6f64696e657373222c202276615f8201527f6c7565223a203130307d5d2c2022696d616765223a2022000000000000000000602082015250565b5f612050603783611edc565b915061205b82611ff6565b603782019050919050565b7f227d0000000000000000000000000000000000000000000000000000000000005f82015250565b5f61209a600283611edc565b91506120a582612066565b600282019050919050565b5f6120ba82611f0e565b91506120c68285611f30565b91506120d182611fd4565b91506120dc82612044565b91506120e88284611f30565b91506120f38261208e565b91508190509392505050565b5f61210a8285611f30565b91506121168284611f30565b91508190509392505050565b5f81519050919050565b5f82825260208201905092915050565b5f61214682612122565b612150818561212c565b9350612160818560208601611920565b6121698161192e565b840191505092915050565b5f6080820190506121875f830187611a24565b6121946020830186611a24565b6121a16040830185611b2f565b81810360608301526121b3818461213c565b905095945050505050565b5f815190506121cc8161187e565b92915050565b5f602082840312156121e7576121e661184b565b5b5f6121f4848285016121be565b91505092915050565b5f6040820190506122105f830185611a24565b61221d6020830184611b2f565b9392505050565b5f61222e82611996565b915061223983611996565b925082820261224781611996565b9150828204841483151761225e5761225d611e68565b5b5092915050565b5f61226f82611996565b915061227a83611996565b925082820190508082111561229257612291611e68565b5b92915050565b7f4e487b71000000000000000000000000000000000000000000000000000000005f52601260045260245ffd5b5f6122cf82611996565b91506122da83611996565b9250826122ea576122e9612298565b5b82820490509291505056fe4142434445464748494a4b4c4d4e4f505152535455565758595a6162636465666768696a6b6c6d6e6f707172737475767778797a303132333435363738392b2fa26469706673582212205348360fa15cde151a3d17c7346ddec7c52a93d9438c7dd1811c978ec787914e64736f6c634300081e0033","linkReferences":{}},"methodIdentifiers":{"approve(address,uint256)":"095ea7b3","balanceOf(address)":"70a08231","flipMood(uint256)":"c1a147a0","getApproved(uint256)":"081812fc","isApprovedForAll(address,address)":"e985e9c5","mintNft()":"c2229fea","name()":"06fdde03","ownerOf(uint256)":"6352211e","safeTransferFrom(address,address,uint256)":"42842e0e","safeTransferFrom(address,address,uint256,bytes)":"b88d4fde","setApprovalForAll(address,bool)":"a22cb465","supportsInterface(bytes4)":"01ffc9a7","symbol()":"95d89b41","tokenURI(uint256)":"c87b56dd","transferFrom(address,address,uint256)":"23b872dd"},"id":16}