{"abi":[{"type":"function","name":"main","inputs":[{"name":"x","type":"uint256","internalType":"uint256"}],"outputs":[],"stateMutability":"nonpayable"},{"type":"function","name":"writeHere","inputs":[],"outputs":[{"name":"","type":"uint256","internalType":"uint256"}],"stateMutability":"view"}],"bytecode":{"object":"0x6080604052348015600e575f5ffd5b506101238061001c5f395ff3fe6080604052348015600e575f5ffd5b50600436106030575f3560e01c8063ab3ae255146034578063d7c5157b14604c575b5f5ffd5b604a60048036038101906046919060a3565b6066565b005b6052606c565b604051605d919060d6565b60405180910390f35b805f5550565b5f5481565b5f5ffd5b5f819050919050565b6085816075565b8114608e575f5ffd5b50565b5f81359050609d81607e565b92915050565b5f6020828403121560b55760b46071565b5b5f60c0848285016091565b91505092915050565b60d0816075565b82525050565b5f60208201905060e75f83018460c9565b9291505056fea26469706673582212209731850f4a096966063079c768e48a063980b0014df8018e39f172f55b80b90364736f6c634300081e0033","linkReferences":{}},"methodIdentifiers":{"main(uint256)":"ab3ae255","writeHere()":"d7c5157b"},"id":84}