{"abi":[{"type":"function","name":"main","inputs":[{"name":"index","type":"uint256","internalType":"uint256"}],"outputs":[{"name":"","type":"uint256","internalType":"uint256"}],"stateMutability":"view"},{"type":"function","name":"setValue","inputs":[{"name":"x","type":"uint256[]","internalType":"uint256[]"}],"outputs":[],"stateMutability":"nonpayable"}],"bytecode":{"object":"0x6080604052348015600e575f5ffd5b506102898061001c5f395ff3fe608060405234801561000f575f5ffd5b5060043610610034575f3560e01c806336589b1714610038578063ab3ae25514610054575b5f5ffd5b610052600480360381019061004d9190610182565b610084565b005b61006e60048036038101906100699190610200565b610099565b60405161007b919061023a565b60405180910390f35b81815f91906100949291906100b3565b505050565b5f5f5f5260205f20828101805f525f518054805f5260205ff35b828054828255905f5260205f209081019282156100ed579160200282015b828111156100ec5782358255916020019190600101906100d1565b5b5090506100fa91906100fe565b5090565b5b80821115610115575f815f9055506001016100ff565b5090565b5f5ffd5b5f5ffd5b5f5ffd5b5f5ffd5b5f5ffd5b5f5f83601f84011261014257610141610121565b5b8235905067ffffffffffffffff81111561015f5761015e610125565b5b60208301915083602082028301111561017b5761017a610129565b5b9250929050565b5f5f6020838503121561019857610197610119565b5b5f83013567ffffffffffffffff8111156101b5576101b461011d565b5b6101c18582860161012d565b92509250509250929050565b5f819050919050565b6101df816101cd565b81146101e9575f5ffd5b50565b5f813590506101fa816101d6565b92915050565b5f6020828403121561021557610214610119565b5b5f610222848285016101ec565b91505092915050565b610234816101cd565b82525050565b5f60208201905061024d5f83018461022b565b9291505056fea26469706673582212205374e833d8aaf8eb1d51c021db1a9c32e63da3cb11fd13776c3d27f85ed38d2564736f6c634300081e0033","linkReferences":{}},"methodIdentifiers":{"main(uint256)":"ab3ae255","setValue(uint256[])":"36589b17"},"id":61}