{"abi":[{"type":"function","name":"main","inputs":[{"name":"token","type":"address","internalType":"address"}],"outputs":[{"name":"","type":"uint256","internalType":"uint256"}],"stateMutability":"view"}],"bytecode":{"object":"0x6080604052348015600e575f5ffd5b506101738061001c5f395ff3fe608060405234801561000f575f5ffd5b5060043610610029575f3560e01c8063ecbb72c21461002d575b5f5ffd5b610047600480360381019061004291906100e1565b61005d565b6040516100549190610124565b60405180910390f35b5f6040516370a0823160e01b8152306004820152602081602483865afa3d805f843e8083f35b5f5ffd5b5f73ffffffffffffffffffffffffffffffffffffffff82169050919050565b5f6100b082610087565b9050919050565b6100c0816100a6565b81146100ca575f5ffd5b50565b5f813590506100db816100b7565b92915050565b5f602082840312156100f6576100f5610083565b5b5f610103848285016100cd565b91505092915050565b5f819050919050565b61011e8161010c565b82525050565b5f6020820190506101375f830184610115565b9291505056fea264697066735822122075f256f690acaaa8091140d263a8aa4d1f987e0071a036a5e55dd69b82b1fc5264736f6c634300081e0033","linkReferences":{}},"methodIdentifiers":{"main(address)":"ecbb72c2"},"id":19}