{"abi":[{"type":"function","name":"main","inputs":[{"name":"x","type":"uint256[]","internalType":"uint256[]"}],"outputs":[],"stateMutability":"nonpayable"},{"type":"function","name":"writeHere","inputs":[{"name":"","type":"uint256","internalType":"uint256"}],"outputs":[{"name":"","type":"uint256","internalType":"uint256"}],"stateMutability":"view"}],"bytecode":{"object":"0x6080604052348015600e575f5ffd5b506102558061001c5f395ff3fe608060405234801561000f575f5ffd5b5060043610610034575f3560e01c806316a58ab2146100385780632964e61d14610068575b5f5ffd5b610052600480360381019061004d9190610120565b610084565b60405161005f919061015a565b60405180910390f35b610082600480360381019061007d91906101d4565b6100a3565b005b5f8181548110610092575f80fd5b905f5260205f20015f915090505481565b602435805f555f5f5260205f20600435602081016004015f5b848110156100dc57602081028201358082860155506001810190506100bc565b50505050505050565b5f5ffd5b5f5ffd5b5f819050919050565b6100ff816100ed565b8114610109575f5ffd5b50565b5f8135905061011a816100f6565b92915050565b5f60208284031215610135576101346100e5565b5b5f6101428482850161010c565b91505092915050565b610154816100ed565b82525050565b5f60208201905061016d5f83018461014b565b92915050565b5f5ffd5b5f5ffd5b5f5ffd5b5f5f83601f84011261019457610193610173565b5b8235905067ffffffffffffffff8111156101b1576101b0610177565b5b6020830191508360208202830111156101cd576101cc61017b565b5b9250929050565b5f5f602083850312156101ea576101e96100e5565b5b5f83013567ffffffffffffffff811115610207576102066100e9565b5b6102138582860161017f565b9250925050925092905056fea26469706673582212203665fc7746a2e83a569ad1e735d5315a43a10a746b753bfd19c6e36dbc39bbfb64736f6c634300081e0033","linkReferences":{}},"methodIdentifiers":{"main(uint256[])":"2964e61d","writeHere(uint256)":"16a58ab2"},"id":93}