{"abi":[{"type":"function","name":"main","inputs":[{"name":"emitter","type":"address","internalType":"address"},{"name":"id","type":"bytes32","internalType":"bytes32"},{"name":"person","type":"tuple","internalType":"struct AnonymonusEventWithComplexData.Person","components":[{"name":"name","type":"string","internalType":"string"},{"name":"age","type":"uint256","internalType":"uint256"},{"name":"gender","type":"uint8","internalType":"enum AnonymonusEventWithComplexData.Gender"}]}],"outputs":[],"stateMutability":"nonpayable"},{"type":"event","name":"MyEvent","inputs":[{"name":"emitter","type":"address","indexed":true,"internalType":"address"},{"name":"id","type":"bytes32","indexed":true,"internalType":"bytes32"},{"name":"person","type":"tuple","indexed":false,"internalType":"struct AnonymonusEventWithComplexData.Person","components":[{"name":"name","type":"string","internalType":"string"},{"name":"age","type":"uint256","internalType":"uint256"},{"name":"gender","type":"uint8","internalType":"enum AnonymonusEventWithComplexData.Gender"}]}],"anonymous":false}],"bytecode":{"object":"0x6080604052348015600e575f5ffd5b506103b18061001c5f395ff3fe608060405234801561000f575f5ffd5b5060043610610029575f3560e01c8063edb668dc1461002d575b5f5ffd5b6100476004803603810190610042919061030f565b610049565b005b805f5281835f60c0610120a3505050565b5f604051905090565b5f5ffd5b5f5ffd5b5f73ffffffffffffffffffffffffffffffffffffffff82169050919050565b5f6100948261006b565b9050919050565b6100a48161008a565b81146100ae575f5ffd5b50565b5f813590506100bf8161009b565b92915050565b5f819050919050565b6100d7816100c5565b81146100e1575f5ffd5b50565b5f813590506100f2816100ce565b92915050565b5f5ffd5b5f601f19601f8301169050919050565b7f4e487b71000000000000000000000000000000000000000000000000000000005f52604160045260245ffd5b610142826100fc565b810181811067ffffffffffffffff821117156101615761016061010c565b5b80604052505050565b5f61017361005a565b905061017f8282610139565b919050565b5f5ffd5b5f5ffd5b5f5ffd5b5f67ffffffffffffffff8211156101aa576101a961010c565b5b6101b3826100fc565b9050602081019050919050565b828183375f83830152505050565b5f6101e06101db84610190565b61016a565b9050828152602081018484840111156101fc576101fb61018c565b5b6102078482856101c0565b509392505050565b5f82601f83011261022357610222610188565b5b81356102338482602086016101ce565b91505092915050565b5f819050919050565b61024e8161023c565b8114610258575f5ffd5b50565b5f8135905061026981610245565b92915050565b6003811061027b575f5ffd5b50565b5f8135905061028c8161026f565b92915050565b5f606082840312156102a7576102a66100f8565b5b6102b1606061016a565b90505f82013567ffffffffffffffff8111156102d0576102cf610184565b5b6102dc8482850161020f565b5f8301525060206102ef8482850161025b565b60208301525060406103038482850161027e565b60408301525092915050565b5f5f5f6060848603121561032657610325610063565b5b5f610333868287016100b1565b9350506020610344868287016100e4565b925050604084013567ffffffffffffffff81111561036557610364610067565b5b61037186828701610292565b915050925092509256fea26469706673582212208d69d55ca5e7d87fd4baa44bfcc34b1d6c77ecb282d007b6d7e21f085433f39364736f6c634300081e0033","linkReferences":{}},"methodIdentifiers":{"main(address,bytes32,(string,uint256,uint8))":"edb668dc"},"id":17}