{"abi":[{"type":"function","name":"getter","inputs":[],"outputs":[{"name":"","type":"uint256[]","internalType":"uint256[]"}],"stateMutability":"view"},{"type":"function","name":"main","inputs":[{"name":"newValue","type":"uint256","internalType":"uint256"}],"outputs":[],"stateMutability":"nonpayable"}],"bytecode":{"object":"0x60806040526040518060c00160405280601760ff168152602001600460ff168152602001601360ff168152602001600360ff168152602001602c60ff168152602001605860ff168152505f90600660569291906066565b503480156061575f5ffd5b5060ca565b828054828255905f5260205f2090810192821560a2579160200282015b8281111560a1578251829060ff169055916020019190600101906083565b5b50905060ad919060b1565b5090565b5b8082111560c6575f815f90555060010160b2565b5090565b610253806100d75f395ff3fe608060405234801561000f575f5ffd5b5060043610610034575f3560e01c8063993a04b714610038578063ab3ae25514610056575b5f5ffd5b610040610072565b60405161004d91906101a4565b60405180910390f35b610070600480360381019061006b91906101f2565b6100c7565b005b60605f8054806020026020016040519081016040528092919081815260200182805480156100bd57602002820191905f5260205f20905b8154815260200190600101908083116100a9575b5050505050905090565b5f805f52805460205f208181018481556001830184555050505050565b5f81519050919050565b5f82825260208201905092915050565b5f819050602082019050919050565b5f819050919050565b61011f8161010d565b82525050565b5f6101308383610116565b60208301905092915050565b5f602082019050919050565b5f610152826100e4565b61015c81856100ee565b9350610167836100fe565b805f5b8381101561019757815161017e8882610125565b97506101898361013c565b92505060018101905061016a565b5085935050505092915050565b5f6020820190508181035f8301526101bc8184610148565b905092915050565b5f5ffd5b6101d18161010d565b81146101db575f5ffd5b50565b5f813590506101ec816101c8565b92915050565b5f60208284031215610207576102066101c4565b5b5f610214848285016101de565b9150509291505056fea264697066735822122076fc0f8dbcc1fb8db985acdcba505c47ca5ccab755bc858bc782cf9d9fe5e95464736f6c634300081e0033","linkReferences":{}},"methodIdentifiers":{"getter()":"993a04b7","main(uint256)":"ab3ae255"},"id":44}