{"abi":[{"type":"function","name":"main","inputs":[{"name":"x","type":"uint256[]","internalType":"uint256[]"}],"outputs":[{"name":"","type":"uint256","internalType":"uint256"}],"stateMutability":"view"}],"bytecode":{"object":"0x6080604052348015600e575f5ffd5b506102a18061001c5f395ff3fe608060405234801561000f575f5ffd5b5060043610610029575f3560e01c80632964e61d1461002d575b5f5ffd5b610047600480360381019061004291906101fc565b61005d565b6040516100549190610252565b60405180910390f35b5f8151805f5260205ff35b5f604051905090565b5f5ffd5b5f5ffd5b5f5ffd5b5f601f19601f8301169050919050565b7f4e487b71000000000000000000000000000000000000000000000000000000005f52604160045260245ffd5b6100c38261007d565b810181811067ffffffffffffffff821117156100e2576100e161008d565b5b80604052505050565b5f6100f4610068565b905061010082826100ba565b919050565b5f67ffffffffffffffff82111561011f5761011e61008d565b5b602082029050602081019050919050565b5f5ffd5b5f819050919050565b61014681610134565b8114610150575f5ffd5b50565b5f813590506101618161013d565b92915050565b5f61017961017484610105565b6100eb565b9050808382526020820190506020840283018581111561019c5761019b610130565b5b835b818110156101c557806101b18882610153565b84526020840193505060208101905061019e565b5050509392505050565b5f82601f8301126101e3576101e2610079565b5b81356101f3848260208601610167565b91505092915050565b5f6020828403121561021157610210610071565b5b5f82013567ffffffffffffffff81111561022e5761022d610075565b5b61023a848285016101cf565b91505092915050565b61024c81610134565b82525050565b5f6020820190506102655f830184610243565b9291505056fea26469706673582212203771de8abf2415ed8efddb523d653d50c4bcf78643792bd267d189213f34f2e464736f6c634300081e0033","linkReferences":{}},"methodIdentifiers":{"main(uint256[])":"2964e61d"},"id":53}